{
  "_format": "hh-sol-artifact-1",
  "contractName": "OctoChest",
  "sourceName": "contracts/OctoChest.sol",
  "abi": [
    {
      "inputs": [
        {
          "internalType": "address",
          "name": "defaultAdmin",
          "type": "address"
        },
        {
          "internalType": "address",
          "name": "minter",
          "type": "address"
        }
      ],
      "stateMutability": "nonpayable",
      "type": "constructor"
    },
    {
      "inputs": [],
      "name": "AccessControlBadConfirmation",
      "type": "error"
    },
    {
      "inputs": [
        {
          "internalType": "address",
          "name": "account",
          "type": "address"
        },
        {
          "internalType": "bytes32",
          "name": "neededRole",
          "type": "bytes32"
        }
      ],
      "name": "AccessControlUnauthorizedAccount",
      "type": "error"
    },
    {
      "inputs": [],
      "name": "ERC721EnumerableForbiddenBatchMint",
      "type": "error"
    },
    {
      "inputs": [
        {
          "internalType": "address",
          "name": "sender",
          "type": "address"
        },
        {
          "internalType": "uint256",
          "name": "tokenId",
          "type": "uint256"
        },
        {
          "internalType": "address",
          "name": "owner",
          "type": "address"
        }
      ],
      "name": "ERC721IncorrectOwner",
      "type": "error"
    },
    {
      "inputs": [
        {
          "internalType": "address",
          "name": "operator",
          "type": "address"
        },
        {
          "internalType": "uint256",
          "name": "tokenId",
          "type": "uint256"
        }
      ],
      "name": "ERC721InsufficientApproval",
      "type": "error"
    },
    {
      "inputs": [
        {
          "internalType": "address",
          "name": "approver",
          "type": "address"
        }
      ],
      "name": "ERC721InvalidApprover",
      "type": "error"
    },
    {
      "inputs": [
        {
          "internalType": "address",
          "name": "operator",
          "type": "address"
        }
      ],
      "name": "ERC721InvalidOperator",
      "type": "error"
    },
    {
      "inputs": [
        {
          "internalType": "address",
          "name": "owner",
          "type": "address"
        }
      ],
      "name": "ERC721InvalidOwner",
      "type": "error"
    },
    {
      "inputs": [
        {
          "internalType": "address",
          "name": "receiver",
          "type": "address"
        }
      ],
      "name": "ERC721InvalidReceiver",
      "type": "error"
    },
    {
      "inputs": [
        {
          "internalType": "address",
          "name": "sender",
          "type": "address"
        }
      ],
      "name": "ERC721InvalidSender",
      "type": "error"
    },
    {
      "inputs": [
        {
          "internalType": "uint256",
          "name": "tokenId",
          "type": "uint256"
        }
      ],
      "name": "ERC721NonexistentToken",
      "type": "error"
    },
    {
      "inputs": [
        {
          "internalType": "address",
          "name": "owner",
          "type": "address"
        },
        {
          "internalType": "uint256",
          "name": "index",
          "type": "uint256"
        }
      ],
      "name": "ERC721OutOfBoundsIndex",
      "type": "error"
    },
    {
      "inputs": [],
      "name": "OctoChestDontExist",
      "type": "error"
    },
    {
      "anonymous": false,
      "inputs": [
        {
          "indexed": true,
          "internalType": "address",
          "name": "owner",
          "type": "address"
        },
        {
          "indexed": true,
          "internalType": "address",
          "name": "approved",
          "type": "address"
        },
        {
          "indexed": true,
          "internalType": "uint256",
          "name": "tokenId",
          "type": "uint256"
        }
      ],
      "name": "Approval",
      "type": "event"
    },
    {
      "anonymous": false,
      "inputs": [
        {
          "indexed": true,
          "internalType": "address",
          "name": "owner",
          "type": "address"
        },
        {
          "indexed": true,
          "internalType": "address",
          "name": "operator",
          "type": "address"
        },
        {
          "indexed": false,
          "internalType": "bool",
          "name": "approved",
          "type": "bool"
        }
      ],
      "name": "ApprovalForAll",
      "type": "event"
    },
    {
      "anonymous": false,
      "inputs": [
        {
          "indexed": true,
          "internalType": "bytes32",
          "name": "role",
          "type": "bytes32"
        },
        {
          "indexed": true,
          "internalType": "bytes32",
          "name": "previousAdminRole",
          "type": "bytes32"
        },
        {
          "indexed": true,
          "internalType": "bytes32",
          "name": "newAdminRole",
          "type": "bytes32"
        }
      ],
      "name": "RoleAdminChanged",
      "type": "event"
    },
    {
      "anonymous": false,
      "inputs": [
        {
          "indexed": true,
          "internalType": "bytes32",
          "name": "role",
          "type": "bytes32"
        },
        {
          "indexed": true,
          "internalType": "address",
          "name": "account",
          "type": "address"
        },
        {
          "indexed": true,
          "internalType": "address",
          "name": "sender",
          "type": "address"
        }
      ],
      "name": "RoleGranted",
      "type": "event"
    },
    {
      "anonymous": false,
      "inputs": [
        {
          "indexed": true,
          "internalType": "bytes32",
          "name": "role",
          "type": "bytes32"
        },
        {
          "indexed": true,
          "internalType": "address",
          "name": "account",
          "type": "address"
        },
        {
          "indexed": true,
          "internalType": "address",
          "name": "sender",
          "type": "address"
        }
      ],
      "name": "RoleRevoked",
      "type": "event"
    },
    {
      "anonymous": false,
      "inputs": [
        {
          "indexed": true,
          "internalType": "address",
          "name": "from",
          "type": "address"
        },
        {
          "indexed": true,
          "internalType": "address",
          "name": "to",
          "type": "address"
        },
        {
          "indexed": true,
          "internalType": "uint256",
          "name": "tokenId",
          "type": "uint256"
        }
      ],
      "name": "Transfer",
      "type": "event"
    },
    {
      "inputs": [],
      "name": "DEFAULT_ADMIN_ROLE",
      "outputs": [
        {
          "internalType": "bytes32",
          "name": "",
          "type": "bytes32"
        }
      ],
      "stateMutability": "view",
      "type": "function"
    },
    {
      "inputs": [],
      "name": "LEVEL_ONE_IMAGE_NUMBER",
      "outputs": [
        {
          "internalType": "uint8",
          "name": "",
          "type": "uint8"
        }
      ],
      "stateMutability": "view",
      "type": "function"
    },
    {
      "inputs": [],
      "name": "MAX_IMAGES",
      "outputs": [
        {
          "internalType": "uint8",
          "name": "",
          "type": "uint8"
        }
      ],
      "stateMutability": "view",
      "type": "function"
    },
    {
      "inputs": [],
      "name": "MINTER_ROLE",
      "outputs": [
        {
          "internalType": "bytes32",
          "name": "",
          "type": "bytes32"
        }
      ],
      "stateMutability": "view",
      "type": "function"
    },
    {
      "inputs": [
        {
          "internalType": "address",
          "name": "to",
          "type": "address"
        },
        {
          "internalType": "uint256",
          "name": "tokenId",
          "type": "uint256"
        }
      ],
      "name": "approve",
      "outputs": [],
      "stateMutability": "nonpayable",
      "type": "function"
    },
    {
      "inputs": [
        {
          "internalType": "address",
          "name": "owner",
          "type": "address"
        }
      ],
      "name": "balanceOf",
      "outputs": [
        {
          "internalType": "uint256",
          "name": "",
          "type": "uint256"
        }
      ],
      "stateMutability": "view",
      "type": "function"
    },
    {
      "inputs": [
        {
          "internalType": "uint256",
          "name": "tokenId",
          "type": "uint256"
        }
      ],
      "name": "burn",
      "outputs": [],
      "stateMutability": "nonpayable",
      "type": "function"
    },
    {
      "inputs": [
        {
          "internalType": "uint256",
          "name": "tokenId",
          "type": "uint256"
        }
      ],
      "name": "getApproved",
      "outputs": [
        {
          "internalType": "address",
          "name": "",
          "type": "address"
        }
      ],
      "stateMutability": "view",
      "type": "function"
    },
    {
      "inputs": [
        {
          "internalType": "bytes32",
          "name": "role",
          "type": "bytes32"
        }
      ],
      "name": "getRoleAdmin",
      "outputs": [
        {
          "internalType": "bytes32",
          "name": "",
          "type": "bytes32"
        }
      ],
      "stateMutability": "view",
      "type": "function"
    },
    {
      "inputs": [
        {
          "internalType": "bytes32",
          "name": "role",
          "type": "bytes32"
        },
        {
          "internalType": "address",
          "name": "account",
          "type": "address"
        }
      ],
      "name": "grantRole",
      "outputs": [],
      "stateMutability": "nonpayable",
      "type": "function"
    },
    {
      "inputs": [
        {
          "internalType": "bytes32",
          "name": "role",
          "type": "bytes32"
        },
        {
          "internalType": "address",
          "name": "account",
          "type": "address"
        }
      ],
      "name": "hasRole",
      "outputs": [
        {
          "internalType": "bool",
          "name": "",
          "type": "bool"
        }
      ],
      "stateMutability": "view",
      "type": "function"
    },
    {
      "inputs": [
        {
          "internalType": "uint256",
          "name": "tokenId",
          "type": "uint256"
        }
      ],
      "name": "imageNumberOf",
      "outputs": [
        {
          "internalType": "uint8",
          "name": "",
          "type": "uint8"
        }
      ],
      "stateMutability": "view",
      "type": "function"
    },
    {
      "inputs": [
        {
          "internalType": "address",
          "name": "owner",
          "type": "address"
        },
        {
          "internalType": "address",
          "name": "operator",
          "type": "address"
        }
      ],
      "name": "isApprovedForAll",
      "outputs": [
        {
          "internalType": "bool",
          "name": "",
          "type": "bool"
        }
      ],
      "stateMutability": "view",
      "type": "function"
    },
    {
      "inputs": [],
      "name": "name",
      "outputs": [
        {
          "internalType": "string",
          "name": "",
          "type": "string"
        }
      ],
      "stateMutability": "view",
      "type": "function"
    },
    {
      "inputs": [
        {
          "internalType": "uint256",
          "name": "tokenId",
          "type": "uint256"
        }
      ],
      "name": "ownerOf",
      "outputs": [
        {
          "internalType": "address",
          "name": "",
          "type": "address"
        }
      ],
      "stateMutability": "view",
      "type": "function"
    },
    {
      "inputs": [
        {
          "internalType": "bytes32",
          "name": "role",
          "type": "bytes32"
        },
        {
          "internalType": "address",
          "name": "callerConfirmation",
          "type": "address"
        }
      ],
      "name": "renounceRole",
      "outputs": [],
      "stateMutability": "nonpayable",
      "type": "function"
    },
    {
      "inputs": [
        {
          "internalType": "bytes32",
          "name": "role",
          "type": "bytes32"
        },
        {
          "internalType": "address",
          "name": "account",
          "type": "address"
        }
      ],
      "name": "revokeRole",
      "outputs": [],
      "stateMutability": "nonpayable",
      "type": "function"
    },
    {
      "inputs": [
        {
          "internalType": "address",
          "name": "to",
          "type": "address"
        }
      ],
      "name": "safeMintLevel1",
      "outputs": [
        {
          "internalType": "uint256",
          "name": "",
          "type": "uint256"
        }
      ],
      "stateMutability": "nonpayable",
      "type": "function"
    },
    {
      "inputs": [
        {
          "internalType": "address",
          "name": "to",
          "type": "address"
        }
      ],
      "name": "safeMintLevel2",
      "outputs": [
        {
          "internalType": "uint256",
          "name": "",
          "type": "uint256"
        }
      ],
      "stateMutability": "nonpayable",
      "type": "function"
    },
    {
      "inputs": [
        {
          "internalType": "address",
          "name": "from",
          "type": "address"
        },
        {
          "internalType": "address",
          "name": "to",
          "type": "address"
        },
        {
          "internalType": "uint256",
          "name": "tokenId",
          "type": "uint256"
        }
      ],
      "name": "safeTransferFrom",
      "outputs": [],
      "stateMutability": "nonpayable",
      "type": "function"
    },
    {
      "inputs": [
        {
          "internalType": "address",
          "name": "from",
          "type": "address"
        },
        {
          "internalType": "address",
          "name": "to",
          "type": "address"
        },
        {
          "internalType": "uint256",
          "name": "tokenId",
          "type": "uint256"
        },
        {
          "internalType": "bytes",
          "name": "data",
          "type": "bytes"
        }
      ],
      "name": "safeTransferFrom",
      "outputs": [],
      "stateMutability": "nonpayable",
      "type": "function"
    },
    {
      "inputs": [
        {
          "internalType": "address",
          "name": "operator",
          "type": "address"
        },
        {
          "internalType": "bool",
          "name": "approved",
          "type": "bool"
        }
      ],
      "name": "setApprovalForAll",
      "outputs": [],
      "stateMutability": "nonpayable",
      "type": "function"
    },
    {
      "inputs": [
        {
          "internalType": "bytes4",
          "name": "interfaceId",
          "type": "bytes4"
        }
      ],
      "name": "supportsInterface",
      "outputs": [
        {
          "internalType": "bool",
          "name": "",
          "type": "bool"
        }
      ],
      "stateMutability": "view",
      "type": "function"
    },
    {
      "inputs": [],
      "name": "symbol",
      "outputs": [
        {
          "internalType": "string",
          "name": "",
          "type": "string"
        }
      ],
      "stateMutability": "view",
      "type": "function"
    },
    {
      "inputs": [
        {
          "internalType": "uint256",
          "name": "index",
          "type": "uint256"
        }
      ],
      "name": "tokenByIndex",
      "outputs": [
        {
          "internalType": "uint256",
          "name": "",
          "type": "uint256"
        }
      ],
      "stateMutability": "view",
      "type": "function"
    },
    {
      "inputs": [
        {
          "internalType": "address",
          "name": "owner",
          "type": "address"
        },
        {
          "internalType": "uint256",
          "name": "index",
          "type": "uint256"
        }
      ],
      "name": "tokenOfOwnerByIndex",
      "outputs": [
        {
          "internalType": "uint256",
          "name": "",
          "type": "uint256"
        }
      ],
      "stateMutability": "view",
      "type": "function"
    },
    {
      "inputs": [
        {
          "internalType": "uint256",
          "name": "tokenId",
          "type": "uint256"
        }
      ],
      "name": "tokenURI",
      "outputs": [
        {
          "internalType": "string",
          "name": "",
          "type": "string"
        }
      ],
      "stateMutability": "view",
      "type": "function"
    },
    {
      "inputs": [],
      "name": "totalSupply",
      "outputs": [
        {
          "internalType": "uint256",
          "name": "",
          "type": "uint256"
        }
      ],
      "stateMutability": "view",
      "type": "function"
    },
    {
      "inputs": [
        {
          "internalType": "address",
          "name": "from",
          "type": "address"
        },
        {
          "internalType": "address",
          "name": "to",
          "type": "address"
        },
        {
          "internalType": "uint256",
          "name": "tokenId",
          "type": "uint256"
        }
      ],
      "name": "transferFrom",
      "outputs": [],
      "stateMutability": "nonpayable",
      "type": "function"
    }
  ],
  "bytecode": "0x608060405234801561001057600080fd5b50604051611da4380380611da483398101604081905261002f91610197565b6040518060400160405280600981526020016813d8dd1bd0da195cdd60ba1b815250604051806040016040528060028152602001614f4360f01b815250816000908161007b9190610269565b5060016100888282610269565b50610098915060009050836100cb565b506100c37f9f2df0fed2c77648de5860a4cc508cd0818c85b8b8a1ab4ceeef8d981c8956a6826100cb565b505050610327565b60008281526006602090815260408083206001600160a01b038516845290915281205460ff166101715760008381526006602090815260408083206001600160a01b03861684529091529020805460ff191660011790556101293390565b6001600160a01b0316826001600160a01b0316847f2f8788117e7eff1d82e926ec794901d17c78024a50270940304540a733656f0d60405160405180910390a4506001610175565b5060005b92915050565b80516001600160a01b038116811461019257600080fd5b919050565b600080604083850312156101aa57600080fd5b6101b38361017b565b91506101c16020840161017b565b90509250929050565b634e487b7160e01b600052604160045260246000fd5b600181811c908216806101f457607f821691505b60208210810361021457634e487b7160e01b600052602260045260246000fd5b50919050565b601f82111561026457806000526020600020601f840160051c810160208510156102415750805b601f840160051c820191505b81811015610261576000815560010161024d565b50505b505050565b81516001600160401b03811115610282576102826101ca565b6102968161029084546101e0565b8461021a565b6020601f8211600181146102ca57600083156102b25750848201515b600019600385901b1c1916600184901b178455610261565b600084815260208120601f198516915b828110156102fa57878501518255602094850194600190920191016102da565b50848210156103185786840151600019600387901b60f8161c191681555b50505050600190811b01905550565b611a6e806103366000396000f3fe608060405234801561001057600080fd5b50600436106101cf5760003560e01c806370a0823111610104578063b469b506116100a2578063d547741f11610071578063d547741f146103f4578063d8a7572314610407578063e985e9c51461041a578063f7af81a71461042d57600080fd5b8063b469b50614610394578063b88d4fde146103a7578063c87b56dd146103ba578063d5391393146103cd57600080fd5b806391d14854116100de57806391d148541461035e57806395d89b4114610371578063a217fddf14610379578063a22cb4651461038157600080fd5b806370a082311461031e57806376bbe0c2146103315780638d0905471461034b57600080fd5b80632f2ff15d1161017157806342842e0e1161014b57806342842e0e146102d257806342966c68146102e55780634f6ccce7146102f85780636352211e1461030b57600080fd5b80632f2ff15d146102995780632f745c59146102ac57806336568abe146102bf57600080fd5b8063095ea7b3116101ad578063095ea7b31461023c57806318160ddd1461025157806323b872dd14610263578063248a9ca31461027657600080fd5b806301ffc9a7146101d457806306fdde03146101fc578063081812fc14610211575b600080fd5b6101e76101e2366004611596565b610435565b60405190151581526020015b60405180910390f35b610204610446565b6040516101f3919061160a565b61022461021f36600461161d565b6104d8565b6040516001600160a01b0390911681526020016101f3565b61024f61024a366004611652565b610501565b005b6009545b6040519081526020016101f3565b61024f61027136600461167c565b610510565b61025561028436600461161d565b60009081526006602052604090206001015490565b61024f6102a73660046116b9565b6105a0565b6102556102ba366004611652565b6105c5565b61024f6102cd3660046116b9565b61062a565b61024f6102e036600461167c565b610662565b61024f6102f336600461161d565b61067d565b61025561030636600461161d565b610689565b61022461031936600461161d565b6106e2565b61025561032c3660046116e5565b6106ed565b610339601481565b60405160ff90911681526020016101f3565b6102556103593660046116e5565b610735565b6101e761036c3660046116b9565b610777565b6102046107a2565b610255600081565b61024f61038f366004611700565b6107b1565b6103396103a236600461161d565b6107bc565b61024f6103b5366004611752565b6107dd565b6102046103c836600461161d565b6107f5565b6102557f9f2df0fed2c77648de5860a4cc508cd0818c85b8b8a1ab4ceeef8d981c8956a681565b61024f6104023660046116b9565b610850565b6102556104153660046116e5565b610875565b6101e7610428366004611836565b6108b8565b610339600581565b6000610440826108e6565b92915050565b60606000805461045590611860565b80601f016020809104026020016040519081016040528092919081815260200182805461048190611860565b80156104ce5780601f106104a3576101008083540402835291602001916104ce565b820191906000526020600020905b8154815290600101906020018083116104b157829003601f168201915b5050505050905090565b60006104e38261090b565b506000828152600460205260409020546001600160a01b0316610440565b61050c828233610944565b5050565b6001600160a01b03821661053f57604051633250574960e11b8152600060048201526024015b60405180910390fd5b600061054c838333610951565b9050836001600160a01b0316816001600160a01b03161461059a576040516364283d7b60e01b81526001600160a01b0380861660048301526024820184905282166044820152606401610536565b50505050565b6000828152600660205260409020600101546105bb81610966565b61059a8383610973565b60006105d0836106ed565b82106106015760405163295f44f760e21b81526001600160a01b038416600482015260248101839052604401610536565b506001600160a01b03919091166000908152600760209081526040808320938352929052205490565b6001600160a01b03811633146106535760405163334bd91960e11b815260040160405180910390fd5b61065d8282610a07565b505050565b61065d838383604051806020016040528060008152506107dd565b61050c60008233610951565b600061069460095490565b82106106bd5760405163295f44f760e21b81526000600482015260248101839052604401610536565b600982815481106106d0576106d0611894565b90600052602060002001549050919050565b60006104408261090b565b60006001600160a01b038216610719576040516322718ad960e21b815260006004820152602401610536565b506001600160a01b031660009081526003602052604090205490565b60007f9f2df0fed2c77648de5860a4cc508cd0818c85b8b8a1ab4ceeef8d981c8956a661076181610966565b61076e8360016005610a74565b91505b50919050565b60009182526006602090815260408084206001600160a01b0393909316845291905290205460ff1690565b60606001805461045590611860565b61050c338383610b9e565b60006107c782610c3d565b506000908152600c602052604090205460ff1690565b6107e8848484610510565b61059a3385858585610c72565b606061080082610c3d565b6000828152600c602052604081205460ff169061081c82610d9d565b9050610826610e30565b816040516020016108389291906118aa565b60405160208183030381529060405292505050919050565b60008281526006602052604090206001015461086b81610966565b61059a8383610a07565b60007f9f2df0fed2c77648de5860a4cc508cd0818c85b8b8a1ab4ceeef8d981c8956a66108a181610966565b61076e836108b1600560016118ff565b6014610a74565b6001600160a01b03918216600090815260056020908152604080832093909416825291909152205460ff1690565b60006001600160e01b0319821663780e9d6360e01b1480610440575061044082610e50565b6000818152600260205260408120546001600160a01b03168061044057604051637e27328960e01b815260048101849052602401610536565b61065d8383836001610e75565b600061095e848484610f7b565b949350505050565b6109708133611048565b50565b600061097f8383610777565b6109ff5760008381526006602090815260408083206001600160a01b03861684529091529020805460ff191660011790556109b73390565b6001600160a01b0316826001600160a01b0316847f2f8788117e7eff1d82e926ec794901d17c78024a50270940304540a733656f0d60405160405180910390a4506001610440565b506000610440565b6000610a138383610777565b156109ff5760008381526006602090815260408083206001600160a01b0386168085529252808320805460ff1916905551339286917ff6391f5c32d9c69d2a47ea670b442974b53935d1edc7fd64eb21e047a839171b9190a4506001610440565b60008160ff168360ff16108015610a8f575060148260ff1611155b610ad15760405162461bcd60e51b8152602060048201526013602482015272496e76616c696420696d6167652072616e676560681b6044820152606401610536565b600b805460009182610ae283611918565b919050559050610af28582611081565b600060ff8516610b028686611931565b610b0d9060016118ff565b60ff16428885604051602001610b489392919092835260609190911b6bffffffffffffffffffffffff19166020830152603482015260540190565b6040516020818303038152906040528051906020012060001c610b6b919061194a565b610b75919061196c565b6000838152600c60205260409020805460ff191660ff9290921691909117905550949350505050565b6001600160a01b038216610bd057604051630b61174360e31b81526001600160a01b0383166004820152602401610536565b6001600160a01b03838116600081815260056020908152604080832094871680845294825291829020805460ff191686151590811790915591519182527f17307eab39ab6107e8899845ad3d59bd9653f200f220920489ca2b5937696c31910160405180910390a3505050565b6000818152600260205260409020546001600160a01b03166109705760405163178025ed60e31b815260040160405180910390fd5b6001600160a01b0383163b15610d9657604051630a85bd0160e11b81526001600160a01b0384169063150b7a0290610cb490889088908790879060040161197f565b6020604051808303816000875af1925050508015610cef575060408051601f3d908101601f19168201909252610cec918101906119bc565b60015b610d58573d808015610d1d576040519150601f19603f3d011682016040523d82523d6000602084013e610d22565b606091505b508051600003610d5057604051633250574960e11b81526001600160a01b0385166004820152602401610536565b805181602001fd5b6001600160e01b03198116630a85bd0160e11b14610d9457604051633250574960e11b81526001600160a01b0385166004820152602401610536565b505b5050505050565b60606000610daa8361109b565b600101905060008167ffffffffffffffff811115610dca57610dca61173c565b6040519080825280601f01601f191660200182016040528015610df4576020820181803683370190505b5090508181016020015b600019016f181899199a1a9b1b9c1cb0b131b232b360811b600a86061a8153600a8504945084610dfe57509392505050565b6060604051806060016040528060368152602001611a0360369139905090565b60006001600160e01b03198216637965db0b60e01b1480610440575061044082611173565b8080610e8957506001600160a01b03821615155b15610f4b576000610e998461090b565b90506001600160a01b03831615801590610ec55750826001600160a01b0316816001600160a01b031614155b8015610ed85750610ed681846108b8565b155b15610f015760405163a9fbf51f60e01b81526001600160a01b0384166004820152602401610536565b8115610f495783856001600160a01b0316826001600160a01b03167f8c5be1e5ebec7d5bd14f71427d1e84f3dd0314c0f7b2291e5b200ac8c7c3b92560405160405180910390a45b505b5050600090815260046020526040902080546001600160a01b0319166001600160a01b0392909216919091179055565b600080610f898585856111c3565b90506001600160a01b038116610fe657610fe184600980546000838152600a60205260408120829055600182018355919091527f6e1540171b6c0c960b71a7020d9f60077f6af931a8bbf590da0223dacf75c7af0155565b611009565b846001600160a01b0316816001600160a01b0316146110095761100981856112bc565b6001600160a01b038516611025576110208461133d565b61095e565b846001600160a01b0316816001600160a01b03161461095e5761095e85856113ec565b6110528282610777565b61050c5760405163e2517d3f60e01b81526001600160a01b038216600482015260248101839052604401610536565b61050c82826040518060200160405280600081525061143c565b60008072184f03e93ff9f4daa797ed6e38ed64bf6a1f0160401b83106110da5772184f03e93ff9f4daa797ed6e38ed64bf6a1f0160401b830492506040015b6d04ee2d6d415b85acef81000000008310611106576d04ee2d6d415b85acef8100000000830492506020015b662386f26fc10000831061112457662386f26fc10000830492506010015b6305f5e100831061113c576305f5e100830492506008015b612710831061115057612710830492506004015b60648310611162576064830492506002015b600a83106104405760010192915050565b60006001600160e01b031982166380ac58cd60e01b14806111a457506001600160e01b03198216635b5e139f60e01b145b8061044057506301ffc9a760e01b6001600160e01b0319831614610440565b6000828152600260205260408120546001600160a01b03908116908316156111f0576111f0818486611454565b6001600160a01b0381161561122e5761120d600085600080610e75565b6001600160a01b038116600090815260036020526040902080546000190190555b6001600160a01b0385161561125d576001600160a01b0385166000908152600360205260409020805460010190555b60008481526002602052604080822080546001600160a01b0319166001600160a01b0389811691821790925591518793918516917fddf252ad1be2c89b69c2b068fc378daa952ba7f163c4a11628f55a4df523b3ef91a4949350505050565b60006112c7836106ed565b6000838152600860209081526040808320546001600160a01b038816845260079092529091209192509081831461131e57600083815260208281526040808320548584528184208190558352600890915290208290555b6000938452600860209081526040808620869055938552525081205550565b60095460009061134f906001906119d9565b6000838152600a60205260408120546009805493945090928490811061137757611377611894565b90600052602060002001549050806009838154811061139857611398611894565b6000918252602080832090910192909255828152600a909152604080822084905585825281205560098054806113d0576113d06119ec565b6001900381819060005260206000200160009055905550505050565b600060016113f9846106ed565b61140391906119d9565b6001600160a01b039093166000908152600760209081526040808320868452825280832085905593825260089052919091209190915550565b61144683836114b8565b61065d336000858585610c72565b61145f83838361151d565b61065d576001600160a01b03831661148d57604051637e27328960e01b815260048101829052602401610536565b60405163177e802f60e01b81526001600160a01b038316600482015260248101829052604401610536565b6001600160a01b0382166114e257604051633250574960e11b815260006004820152602401610536565b60006114f083836000610951565b90506001600160a01b0381161561065d576040516339e3563760e11b815260006004820152602401610536565b60006001600160a01b0383161580159061095e5750826001600160a01b0316846001600160a01b03161480611557575061155784846108b8565b8061095e5750506000908152600460205260409020546001600160a01b03908116911614919050565b6001600160e01b03198116811461097057600080fd5b6000602082840312156115a857600080fd5b81356115b381611580565b9392505050565b60005b838110156115d55781810151838201526020016115bd565b50506000910152565b600081518084526115f68160208601602086016115ba565b601f01601f19169290920160200192915050565b6020815260006115b360208301846115de565b60006020828403121561162f57600080fd5b5035919050565b80356001600160a01b038116811461164d57600080fd5b919050565b6000806040838503121561166557600080fd5b61166e83611636565b946020939093013593505050565b60008060006060848603121561169157600080fd5b61169a84611636565b92506116a860208501611636565b929592945050506040919091013590565b600080604083850312156116cc57600080fd5b823591506116dc60208401611636565b90509250929050565b6000602082840312156116f757600080fd5b6115b382611636565b6000806040838503121561171357600080fd5b61171c83611636565b91506020830135801515811461173157600080fd5b809150509250929050565b634e487b7160e01b600052604160045260246000fd5b6000806000806080858703121561176857600080fd5b61177185611636565b935061177f60208601611636565b925060408501359150606085013567ffffffffffffffff8111156117a257600080fd5b8501601f810187136117b357600080fd5b803567ffffffffffffffff8111156117cd576117cd61173c565b604051601f8201601f19908116603f0116810167ffffffffffffffff811182821017156117fc576117fc61173c565b60405281815282820160200189101561181457600080fd5b8160208401602083013760006020838301015280935050505092959194509250565b6000806040838503121561184957600080fd5b61185283611636565b91506116dc60208401611636565b600181811c9082168061187457607f821691505b60208210810361077157634e487b7160e01b600052602260045260246000fd5b634e487b7160e01b600052603260045260246000fd5b600083516118bc8184602088016115ba565b8351908301906118d08183602088016115ba565b64173539b7b760d91b9101908152600501949350505050565b634e487b7160e01b600052601160045260246000fd5b60ff8181168382160190811115610440576104406118e9565b60006001820161192a5761192a6118e9565b5060010190565b60ff8281168282160390811115610440576104406118e9565b60008261196757634e487b7160e01b600052601260045260246000fd5b500690565b80820180821115610440576104406118e9565b6001600160a01b03858116825284166020820152604081018390526080606082018190526000906119b2908301846115de565b9695505050505050565b6000602082840312156119ce57600080fd5b81516115b381611580565b81810381811115610440576104406118e9565b634e487b7160e01b600052603160045260246000fdfe697066733a2f2f516d5965676156436a54745a61386a754a594563514c5934656977584772616a656e575044383541534461524c542fa2646970667358221220fe2a23e30ece6d1602eea10308615ac8f1b619620f5b93a816abba44ade2e84c64736f6c634300081c0033",
  "linkReferences": {},
  "deployedLinkReferences": {}
}