{
  "_format": "hh-sol-artifact-1",
  "contractName": "Marketplace",
  "sourceName": "contracts/Marketplace.sol",
  "abi": [
    {
      "inputs": [
        {
          "internalType": "address",
          "name": "_token",
          "type": "address"
        },
        {
          "internalType": "uint256",
          "name": "fee",
          "type": "uint256"
        },
        {
          "internalType": "address[]",
          "name": "paymentTokens",
          "type": "address[]"
        }
      ],
      "stateMutability": "nonpayable",
      "type": "constructor"
    },
    {
      "inputs": [],
      "name": "FailedToSendCoins",
      "type": "error"
    },
    {
      "inputs": [],
      "name": "FailedToSendTokens",
      "type": "error"
    },
    {
      "inputs": [],
      "name": "ListingAlreadyExist",
      "type": "error"
    },
    {
      "inputs": [],
      "name": "ListingDoesNotExist",
      "type": "error"
    },
    {
      "inputs": [],
      "name": "NoValidFee",
      "type": "error"
    },
    {
      "inputs": [],
      "name": "NoValidPaymentToken",
      "type": "error"
    },
    {
      "inputs": [],
      "name": "NotEnoughFundsSupplied",
      "type": "error"
    },
    {
      "inputs": [
        {
          "internalType": "uint256",
          "name": "tokenId",
          "type": "uint256"
        },
        {
          "internalType": "address",
          "name": "sender",
          "type": "address"
        }
      ],
      "name": "NotTheOwner",
      "type": "error"
    },
    {
      "inputs": [
        {
          "internalType": "address",
          "name": "owner",
          "type": "address"
        }
      ],
      "name": "OwnableInvalidOwner",
      "type": "error"
    },
    {
      "inputs": [
        {
          "internalType": "address",
          "name": "account",
          "type": "address"
        }
      ],
      "name": "OwnableUnauthorizedAccount",
      "type": "error"
    },
    {
      "inputs": [],
      "name": "PaymentTokenAlreadyExist",
      "type": "error"
    },
    {
      "inputs": [],
      "name": "PaymentTokenTransferFailed",
      "type": "error"
    },
    {
      "inputs": [
        {
          "internalType": "uint256",
          "name": "tokenId",
          "type": "uint256"
        }
      ],
      "name": "TokenNotApproved",
      "type": "error"
    },
    {
      "inputs": [],
      "name": "ZeroPriceNotAllowed",
      "type": "error"
    },
    {
      "anonymous": false,
      "inputs": [
        {
          "indexed": false,
          "internalType": "uint256",
          "name": "newFee",
          "type": "uint256"
        }
      ],
      "name": "FeeSet",
      "type": "event"
    },
    {
      "anonymous": false,
      "inputs": [
        {
          "indexed": true,
          "internalType": "address",
          "name": "seller",
          "type": "address"
        },
        {
          "indexed": true,
          "internalType": "uint256",
          "name": "tokenId",
          "type": "uint256"
        }
      ],
      "name": "ListingCancelled",
      "type": "event"
    },
    {
      "anonymous": false,
      "inputs": [
        {
          "indexed": true,
          "internalType": "address",
          "name": "seller",
          "type": "address"
        },
        {
          "indexed": true,
          "internalType": "uint256",
          "name": "tokenId",
          "type": "uint256"
        },
        {
          "indexed": false,
          "internalType": "uint256",
          "name": "price",
          "type": "uint256"
        },
        {
          "indexed": false,
          "internalType": "address",
          "name": "paymentToken",
          "type": "address"
        }
      ],
      "name": "ListingCreated",
      "type": "event"
    },
    {
      "anonymous": false,
      "inputs": [
        {
          "indexed": true,
          "internalType": "address",
          "name": "buyer",
          "type": "address"
        },
        {
          "indexed": true,
          "internalType": "address",
          "name": "seller",
          "type": "address"
        },
        {
          "indexed": true,
          "internalType": "uint256",
          "name": "tokenId",
          "type": "uint256"
        },
        {
          "indexed": false,
          "internalType": "address",
          "name": "paymentToken",
          "type": "address"
        }
      ],
      "name": "ListingPurchased",
      "type": "event"
    },
    {
      "anonymous": false,
      "inputs": [
        {
          "indexed": true,
          "internalType": "address",
          "name": "seller",
          "type": "address"
        },
        {
          "indexed": true,
          "internalType": "uint256",
          "name": "tokenId",
          "type": "uint256"
        },
        {
          "indexed": false,
          "internalType": "uint256",
          "name": "newPrice",
          "type": "uint256"
        }
      ],
      "name": "ListingUpdated",
      "type": "event"
    },
    {
      "anonymous": false,
      "inputs": [
        {
          "indexed": false,
          "internalType": "address",
          "name": "token",
          "type": "address"
        }
      ],
      "name": "NewPaymentToken",
      "type": "event"
    },
    {
      "anonymous": false,
      "inputs": [
        {
          "indexed": true,
          "internalType": "address",
          "name": "previousOwner",
          "type": "address"
        },
        {
          "indexed": true,
          "internalType": "address",
          "name": "newOwner",
          "type": "address"
        }
      ],
      "name": "OwnershipTransferred",
      "type": "event"
    },
    {
      "anonymous": false,
      "inputs": [
        {
          "indexed": true,
          "internalType": "address",
          "name": "by",
          "type": "address"
        },
        {
          "indexed": false,
          "internalType": "uint256",
          "name": "amount",
          "type": "uint256"
        }
      ],
      "name": "Withdrawal",
      "type": "event"
    },
    {
      "inputs": [],
      "name": "FEE_MULTIPLIER",
      "outputs": [
        {
          "internalType": "uint256",
          "name": "",
          "type": "uint256"
        }
      ],
      "stateMutability": "view",
      "type": "function"
    },
    {
      "inputs": [],
      "name": "MAX_FEE",
      "outputs": [
        {
          "internalType": "uint256",
          "name": "",
          "type": "uint256"
        }
      ],
      "stateMutability": "view",
      "type": "function"
    },
    {
      "inputs": [
        {
          "internalType": "address",
          "name": "_token",
          "type": "address"
        }
      ],
      "name": "addPaymentToken",
      "outputs": [],
      "stateMutability": "nonpayable",
      "type": "function"
    },
    {
      "inputs": [
        {
          "internalType": "uint256",
          "name": "tokenId",
          "type": "uint256"
        }
      ],
      "name": "cancelListing",
      "outputs": [],
      "stateMutability": "nonpayable",
      "type": "function"
    },
    {
      "inputs": [
        {
          "internalType": "uint256",
          "name": "tokenId",
          "type": "uint256"
        },
        {
          "internalType": "uint256",
          "name": "price",
          "type": "uint256"
        }
      ],
      "name": "createListing",
      "outputs": [],
      "stateMutability": "nonpayable",
      "type": "function"
    },
    {
      "inputs": [
        {
          "internalType": "uint256",
          "name": "tokenId",
          "type": "uint256"
        },
        {
          "internalType": "uint256",
          "name": "price",
          "type": "uint256"
        },
        {
          "internalType": "address",
          "name": "paymentToken",
          "type": "address"
        }
      ],
      "name": "createListingWithToken",
      "outputs": [],
      "stateMutability": "nonpayable",
      "type": "function"
    },
    {
      "inputs": [],
      "name": "getFee",
      "outputs": [
        {
          "internalType": "uint256",
          "name": "",
          "type": "uint256"
        }
      ],
      "stateMutability": "view",
      "type": "function"
    },
    {
      "inputs": [
        {
          "internalType": "uint256",
          "name": "tokenId",
          "type": "uint256"
        }
      ],
      "name": "getListing",
      "outputs": [
        {
          "components": [
            {
              "internalType": "uint256",
              "name": "price",
              "type": "uint256"
            },
            {
              "internalType": "address",
              "name": "seller",
              "type": "address"
            },
            {
              "internalType": "address",
              "name": "paymentToken",
              "type": "address"
            }
          ],
          "internalType": "struct IMarketPlace.Listing",
          "name": "",
          "type": "tuple"
        }
      ],
      "stateMutability": "view",
      "type": "function"
    },
    {
      "inputs": [],
      "name": "getNFTAddress",
      "outputs": [
        {
          "internalType": "address",
          "name": "",
          "type": "address"
        }
      ],
      "stateMutability": "view",
      "type": "function"
    },
    {
      "inputs": [
        {
          "internalType": "address",
          "name": "_token",
          "type": "address"
        }
      ],
      "name": "isPaymentToken",
      "outputs": [
        {
          "internalType": "bool",
          "name": "",
          "type": "bool"
        }
      ],
      "stateMutability": "view",
      "type": "function"
    },
    {
      "inputs": [],
      "name": "owner",
      "outputs": [
        {
          "internalType": "address",
          "name": "",
          "type": "address"
        }
      ],
      "stateMutability": "view",
      "type": "function"
    },
    {
      "inputs": [
        {
          "internalType": "uint256",
          "name": "tokenId",
          "type": "uint256"
        }
      ],
      "name": "purchaseListing",
      "outputs": [],
      "stateMutability": "payable",
      "type": "function"
    },
    {
      "inputs": [
        {
          "internalType": "uint256",
          "name": "tokenId",
          "type": "uint256"
        }
      ],
      "name": "purchaseListingWithToken",
      "outputs": [],
      "stateMutability": "nonpayable",
      "type": "function"
    },
    {
      "inputs": [],
      "name": "renounceOwnership",
      "outputs": [],
      "stateMutability": "nonpayable",
      "type": "function"
    },
    {
      "inputs": [
        {
          "internalType": "uint256",
          "name": "newFee",
          "type": "uint256"
        }
      ],
      "name": "setFee",
      "outputs": [],
      "stateMutability": "nonpayable",
      "type": "function"
    },
    {
      "inputs": [
        {
          "internalType": "address",
          "name": "newOwner",
          "type": "address"
        }
      ],
      "name": "transferOwnership",
      "outputs": [],
      "stateMutability": "nonpayable",
      "type": "function"
    },
    {
      "inputs": [
        {
          "internalType": "uint256",
          "name": "tokenId",
          "type": "uint256"
        },
        {
          "internalType": "uint256",
          "name": "newPrice",
          "type": "uint256"
        }
      ],
      "name": "updateListing",
      "outputs": [],
      "stateMutability": "nonpayable",
      "type": "function"
    },
    {
      "inputs": [
        {
          "internalType": "address",
          "name": "_token",
          "type": "address"
        }
      ],
      "name": "withdraw",
      "outputs": [],
      "stateMutability": "nonpayable",
      "type": "function"
    }
  ],
  "bytecode": "0x60a060405234801561001057600080fd5b506040516119bd3803806119bd83398101604081905261002f916101bc565b338061005557604051631e4fbdf760e01b81526000600482015260240160405180910390fd5b61005e81610114565b5061006882610164565b6001600160a01b038316608052600182905560005b81518110156100d85760016002600084848151811061009e5761009e6102a8565b6020908102919091018101516001600160a01b03168252810191909152604001600020805460ff191691151591909117905560010161007d565b506040518281527f20461e09b8e557b77e107939f9ce6544698123aad0fc964ac5cc59b7df2e608f9060200160405180910390a15050506102be565b600080546001600160a01b038381166001600160a01b0319831681178455604051919092169283917f8be0079c531659141344cd1fd0a4f28419497f9722a3daafe3b4186f6b6457e09190a35050565b6101f48111156101875760405163395ad50f60e21b815260040160405180910390fd5b50565b80516001600160a01b03811681146101a157600080fd5b919050565b634e487b7160e01b600052604160045260246000fd5b6000806000606084860312156101d157600080fd5b6101da8461018a565b6020850151604086015191945092506001600160401b038111156101fd57600080fd5b8401601f8101861361020e57600080fd5b80516001600160401b03811115610227576102276101a6565b604051600582901b90603f8201601f191681016001600160401b0381118282101715610255576102556101a6565b60405291825260208184018101929081018984111561027357600080fd5b6020850194505b838510156102995761028b8561018a565b81526020948501940161027a565b50809450505050509250925092565b634e487b7160e01b600052603260045260246000fd5b60805161169e61031f60003960008181610370015281816104210152818161071b01528181610824015281816108bf015281816109c901528181610afe01528181610df701528181610f0001528181610f9b0152611329015261169e6000f3fe6080604052600436106101095760003560e01c80638da5cb5b11610095578063b961847811610064578063b961847814610361578063bc063e1a14610394578063be50b071146103aa578063ced72f87146103ca578063f2fde38b146103df57600080fd5b80638da5cb5b146102a2578063930eaddc146102d4578063a79123a91461031d578063b591b13c1461033d57600080fd5b8063305a67a8116100dc578063305a67a81461020d5780634a7dc8e01461022d57806351cff8d91461024d57806369fe0e2d1461026d578063715018a61461028d57600080fd5b80630179ea881461010e578063107a274a14610130578063169d5a7d146101da5780632b1b9727146101ed575b600080fd5b34801561011a57600080fd5b5061012e6101293660046114fb565b6103ff565b005b34801561013c57600080fd5b506101a261014b36600461151d565b6040805160608082018352600080835260208084018290529284018190529384526003825292829020825193840183528054845260018101546001600160a01b039081169285019290925260020154169082015290565b60408051825181526020808401516001600160a01b039081169183019190915292820151909216908201526060015b60405180910390f35b61012e6101e836600461151d565b610568565b3480156101f957600080fd5b5061012e61020836600461154b565b6106f9565b34801561021957600080fd5b5061012e61022836600461151d565b6109a7565b34801561023957600080fd5b5061012e610248366004611584565b610af4565b34801561025957600080fd5b5061012e610268366004611584565b610bb2565b34801561027957600080fd5b5061012e61028836600461151d565b610d75565b34801561029957600080fd5b5061012e610dc1565b3480156102ae57600080fd5b506000546001600160a01b03165b6040516001600160a01b0390911681526020016101d1565b3480156102e057600080fd5b5061030d6102ef366004611584565b6001600160a01b031660009081526002602052604090205460ff1690565b60405190151581526020016101d1565b34801561032957600080fd5b5061012e6103383660046114fb565b610dd5565b34801561034957600080fd5b5061035361271081565b6040519081526020016101d1565b34801561036d57600080fd5b507f00000000000000000000000000000000000000000000000000000000000000006102bc565b3480156103a057600080fd5b506103536101f481565b3480156103b657600080fd5b5061012e6103c536600461151d565b61103f565b3480156103d657600080fd5b50600154610353565b3480156103eb57600080fd5b5061012e6103fa366004611584565b61128e565b6040516331a9108f60e11b815260048101839052829033906001600160a01b037f00000000000000000000000000000000000000000000000000000000000000001690636352211e90602401602060405180830381865afa158015610468573d6000803e3d6000fd5b505050506040513d601f19601f8201168201806040525081019061048c91906115a8565b6001600160a01b0316146104c157604051630df6426560e11b8152600481018290523360248201526044015b60405180910390fd5b6000838152600360205260408120548491036104f0576040516335aacf6560e11b815260040160405180910390fd5b82806000036105125760405163a2b326dd60e01b815260040160405180910390fd5b6000858152600360205260409081902085905551859033907f3e11d82182e9689c0f7ffc3ce2a4a057e1fc080032c0dcce9c269258c874a86c906105599088815260200190565b60405180910390a35050505050565b600081815260036020526040812054829103610597576040516335aacf6560e11b815260040160405180910390fd5b60008281526003602090815260409182902082516060810184528154815260018201546001600160a01b03908116938201939093526002909101549091169181018290523491156105fb576040516346d6537760e01b815260040160405180910390fd5b805182101561061d576040516311d5b1cb60e11b815260040160405180910390fd5b600061062e838684602001516112cc565b6020808401516040516000815292935087926001600160a01b039091169133917f40c0ccf81131fec5c64c24fb8f32342ead2ce0cd3c9e91ba954ca8546432fdbe910160405180910390a4600082602001516001600160a01b03168260405160006040518083038185875af1925050503d80600081146106ca576040519150601f19603f3d011682016040523d82523d6000602084013e6106cf565b606091505b50509050806106f157604051632f08378760e21b815260040160405180910390fd5b505050505050565b6040516331a9108f60e11b815260048101849052839033906001600160a01b037f00000000000000000000000000000000000000000000000000000000000000001690636352211e90602401602060405180830381865afa158015610762573d6000803e3d6000fd5b505050506040513d601f19601f8201168201806040525081019061078691906115a8565b6001600160a01b0316146107b657604051630df6426560e11b8152600481018290523360248201526044016104b8565b82806000036107d85760405163a2b326dd60e01b815260040160405180910390fd5b600085815260036020526040902054859015610807576040516337080f2760e11b815260040160405180910390fd5b60405163e985e9c560e01b815233600482015230602482015286907f00000000000000000000000000000000000000000000000000000000000000006001600160a01b03169063e985e9c590604401602060405180830381865afa158015610873573d6000803e3d6000fd5b505050506040513d601f19601f8201168201806040525081019061089791906115c5565b158015610936575060405163020604bf60e21b81526004810182905230906001600160a01b037f0000000000000000000000000000000000000000000000000000000000000000169063081812fc90602401602060405180830381865afa158015610906573d6000803e3d6000fd5b505050506040513d601f19601f8201168201806040525081019061092a91906115a8565b6001600160a01b031614155b15610957576040516330b46bfb60e11b8152600481018290526024016104b8565b6001600160a01b038516600090815260026020526040902054859060ff16610992576040516346d6537760e01b815260040160405180910390fd5b61099d8888886113b2565b5050505050505050565b6040516331a9108f60e11b815260048101829052819033906001600160a01b037f00000000000000000000000000000000000000000000000000000000000000001690636352211e90602401602060405180830381865afa158015610a10573d6000803e3d6000fd5b505050506040513d601f19601f82011682018060405250810190610a3491906115a8565b6001600160a01b031614610a6457604051630df6426560e11b8152600481018290523360248201526044016104b8565b600082815260036020526040812054839103610a93576040516335aacf6560e11b815260040160405180910390fd5b6000838152600360205260408082208281556001810180546001600160a01b031990811690915560029091018054909116905551849133917f93ec4766fcd2d9dfdceab8f2e13ba0d9d826645cf03167fdb92b3b7359b5248c9190a3505050565b610afc61145b565b7f00000000000000000000000000000000000000000000000000000000000000006001600160a01b03811660009081526002602052604090205460ff1615610b5757604051632992bcb360e11b815260040160405180910390fd5b6001600160a01b038216600081815260026020908152604091829020805460ff1916600117905590519182527f8e7039b8b033352b9421db09ee909441172c2b03e63527a90b4592287a1371b4910160405180910390a15050565b610bba61145b565b604051478082529033907f7fcf532c15f0a6db0bd6d0e038bea71d30d808c7d98cb3bf7268a95bf5081b659060200160405180910390a26001600160a01b038216610c6d57604051600090339083908381818185875af1925050503d8060008114610c41576040519150601f19603f3d011682016040523d82523d6000602084013e610c46565b606091505b5050905080610c6857604051632f08378760e21b815260040160405180910390fd5b505050565b6040516370a0823160e01b81523060048201526000906001600160a01b038416906370a0823190602401602060405180830381865afa158015610cb4573d6000803e3d6000fd5b505050506040513d601f19601f82011682018060405250810190610cd891906115e7565b60405163a9059cbb60e01b8152336004820152602481018290529091506000906001600160a01b0385169063a9059cbb906044016020604051808303816000875af1158015610d2b573d6000803e3d6000fd5b505050506040513d601f19601f82011682018060405250810190610d4f91906115c5565b905080610d6f5760405163d17fea7960e01b815260040160405180910390fd5b50505050565b610d7d61145b565b610d8681611488565b60018190556040518181527f20461e09b8e557b77e107939f9ce6544698123aad0fc964ac5cc59b7df2e608f9060200160405180910390a150565b610dc961145b565b610dd360006114ab565b565b6040516331a9108f60e11b815260048101839052829033906001600160a01b037f00000000000000000000000000000000000000000000000000000000000000001690636352211e90602401602060405180830381865afa158015610e3e573d6000803e3d6000fd5b505050506040513d601f19601f82011682018060405250810190610e6291906115a8565b6001600160a01b031614610e9257604051630df6426560e11b8152600481018290523360248201526044016104b8565b8180600003610eb45760405163a2b326dd60e01b815260040160405180910390fd5b600084815260036020526040902054849015610ee3576040516337080f2760e11b815260040160405180910390fd5b60405163e985e9c560e01b815233600482015230602482015285907f00000000000000000000000000000000000000000000000000000000000000006001600160a01b03169063e985e9c590604401602060405180830381865afa158015610f4f573d6000803e3d6000fd5b505050506040513d601f19601f82011682018060405250810190610f7391906115c5565b158015611012575060405163020604bf60e21b81526004810182905230906001600160a01b037f0000000000000000000000000000000000000000000000000000000000000000169063081812fc90602401602060405180830381865afa158015610fe2573d6000803e3d6000fd5b505050506040513d601f19601f8201168201806040525081019061100691906115a8565b6001600160a01b031614155b15611033576040516330b46bfb60e11b8152600481018290526024016104b8565b6106f1868660006113b2565b60008181526003602052604081205482910361106e576040516335aacf6560e11b815260040160405180910390fd5b60008281526003602090815260409182902082516060810184528154815260018201546001600160a01b0390811693820193909352600290910154909116918101829052906110d0576040516346d6537760e01b815260040160405180910390fd5b604080820151825191516323b872dd60e01b815233600482015230602482015260448101929092526000916001600160a01b03909116906323b872dd906064016020604051808303816000875af115801561112f573d6000803e3d6000fd5b505050506040513d601f19601f8201168201806040525081019061115391906115c5565b9050806111735760405163149902fd60e31b815260040160405180910390fd5b600061118883600001518685602001516112cc565b90508483602001516001600160a01b0316336001600160a01b03167f40c0ccf81131fec5c64c24fb8f32342ead2ce0cd3c9e91ba954ca8546432fdbe86604001516040516111e591906001600160a01b0391909116815260200190565b60405180910390a46040808401516020850151915163a9059cbb60e01b81526001600160a01b039283166004820152602481018490526000929091169063a9059cbb906044016020604051808303816000875af115801561124a573d6000803e3d6000fd5b505050506040513d601f19601f8201168201806040525081019061126e91906115c5565b9050806106f15760405163d17fea7960e01b815260040160405180910390fd5b61129661145b565b6001600160a01b0381166112c057604051631e4fbdf760e01b8152600060048201526024016104b8565b6112c9816114ab565b50565b6000828152600360205260408082208281556001810180546001600160a01b031990811690915560029091018054909116905551632142170760e11b81526001600160a01b038381166004830152336024830152604482018590527f000000000000000000000000000000000000000000000000000000000000000016906342842e0e90606401600060405180830381600087803b15801561136d57600080fd5b505af1158015611381573d6000803e3d6000fd5b50505050612710600154856113969190611616565b6113a09190611633565b6113aa9085611655565b949350505050565b604080516060810182528381523360208083018281526001600160a01b0386811685870181815260008b8152600386528890209651875592516001870180549184166001600160a01b0319928316179055925160029096018054969092169590921694909417909355835186815290810192909252859290917fdc801191e0c92935648f61c8e3d0cd8eac1d060269ddb920487d02ab0be69e7d910160405180910390a3505050565b6000546001600160a01b03163314610dd35760405163118cdaa760e01b81523360048201526024016104b8565b6101f48111156112c95760405163395ad50f60e21b815260040160405180910390fd5b600080546001600160a01b038381166001600160a01b0319831681178455604051919092169283917f8be0079c531659141344cd1fd0a4f28419497f9722a3daafe3b4186f6b6457e09190a35050565b6000806040838503121561150e57600080fd5b50508035926020909101359150565b60006020828403121561152f57600080fd5b5035919050565b6001600160a01b03811681146112c957600080fd5b60008060006060848603121561156057600080fd5b8335925060208401359150604084013561157981611536565b809150509250925092565b60006020828403121561159657600080fd5b81356115a181611536565b9392505050565b6000602082840312156115ba57600080fd5b81516115a181611536565b6000602082840312156115d757600080fd5b815180151581146115a157600080fd5b6000602082840312156115f957600080fd5b5051919050565b634e487b7160e01b600052601160045260246000fd5b808202811582820484141761162d5761162d611600565b92915050565b60008261165057634e487b7160e01b600052601260045260246000fd5b500490565b8181038181111561162d5761162d61160056fea264697066735822122042aff2b80738e1499797300ab4695927f1492009721df89157d8d3128e32696964736f6c634300081c0033",
  "linkReferences": {},
  "deployedLinkReferences": {}
}