{"abi":[{"type":"constructor","inputs":[{"name":"defaultAdmin","type":"address","internalType":"address"},{"name":"minter","type":"address","internalType":"address"}],"stateMutability":"nonpayable"},{"type":"function","name":"DEFAULT_ADMIN_ROLE","inputs":[],"outputs":[{"name":"","type":"bytes32","internalType":"bytes32"}],"stateMutability":"view"},{"type":"function","name":"MINTER_ROLE","inputs":[],"outputs":[{"name":"","type":"bytes32","internalType":"bytes32"}],"stateMutability":"view"},{"type":"function","name":"approve","inputs":[{"name":"to","type":"address","internalType":"address"},{"name":"tokenId","type":"uint256","internalType":"uint256"}],"outputs":[],"stateMutability":"nonpayable"},{"type":"function","name":"balanceOf","inputs":[{"name":"owner","type":"address","internalType":"address"}],"outputs":[{"name":"","type":"uint256","internalType":"uint256"}],"stateMutability":"view"},{"type":"function","name":"burn","inputs":[{"name":"tokenId","type":"uint256","internalType":"uint256"}],"outputs":[],"stateMutability":"nonpayable"},{"type":"function","name":"getApproved","inputs":[{"name":"tokenId","type":"uint256","internalType":"uint256"}],"outputs":[{"name":"","type":"address","internalType":"address"}],"stateMutability":"view"},{"type":"function","name":"getRoleAdmin","inputs":[{"name":"role","type":"bytes32","internalType":"bytes32"}],"outputs":[{"name":"","type":"bytes32","internalType":"bytes32"}],"stateMutability":"view"},{"type":"function","name":"grantRole","inputs":[{"name":"role","type":"bytes32","internalType":"bytes32"},{"name":"account","type":"address","internalType":"address"}],"outputs":[],"stateMutability":"nonpayable"},{"type":"function","name":"hasRole","inputs":[{"name":"role","type":"bytes32","internalType":"bytes32"},{"name":"account","type":"address","internalType":"address"}],"outputs":[{"name":"","type":"bool","internalType":"bool"}],"stateMutability":"view"},{"type":"function","name":"isApprovedForAll","inputs":[{"name":"owner","type":"address","internalType":"address"},{"name":"operator","type":"address","internalType":"address"}],"outputs":[{"name":"","type":"bool","internalType":"bool"}],"stateMutability":"view"},{"type":"function","name":"name","inputs":[],"outputs":[{"name":"","type":"string","internalType":"string"}],"stateMutability":"view"},{"type":"function","name":"ownerOf","inputs":[{"name":"tokenId","type":"uint256","internalType":"uint256"}],"outputs":[{"name":"","type":"address","internalType":"address"}],"stateMutability":"view"},{"type":"function","name":"renounceRole","inputs":[{"name":"role","type":"bytes32","internalType":"bytes32"},{"name":"callerConfirmation","type":"address","internalType":"address"}],"outputs":[],"stateMutability":"nonpayable"},{"type":"function","name":"revokeRole","inputs":[{"name":"role","type":"bytes32","internalType":"bytes32"},{"name":"account","type":"address","internalType":"address"}],"outputs":[],"stateMutability":"nonpayable"},{"type":"function","name":"safeMint","inputs":[{"name":"to","type":"address","internalType":"address"}],"outputs":[{"name":"","type":"uint256","internalType":"uint256"}],"stateMutability":"nonpayable"},{"type":"function","name":"safeTransferFrom","inputs":[{"name":"from","type":"address","internalType":"address"},{"name":"to","type":"address","internalType":"address"},{"name":"tokenId","type":"uint256","internalType":"uint256"}],"outputs":[],"stateMutability":"nonpayable"},{"type":"function","name":"safeTransferFrom","inputs":[{"name":"from","type":"address","internalType":"address"},{"name":"to","type":"address","internalType":"address"},{"name":"tokenId","type":"uint256","internalType":"uint256"},{"name":"data","type":"bytes","internalType":"bytes"}],"outputs":[],"stateMutability":"nonpayable"},{"type":"function","name":"setApprovalForAll","inputs":[{"name":"operator","type":"address","internalType":"address"},{"name":"approved","type":"bool","internalType":"bool"}],"outputs":[],"stateMutability":"nonpayable"},{"type":"function","name":"supportsInterface","inputs":[{"name":"interfaceId","type":"bytes4","internalType":"bytes4"}],"outputs":[{"name":"","type":"bool","internalType":"bool"}],"stateMutability":"view"},{"type":"function","name":"symbol","inputs":[],"outputs":[{"name":"","type":"string","internalType":"string"}],"stateMutability":"view"},{"type":"function","name":"tokenByIndex","inputs":[{"name":"index","type":"uint256","internalType":"uint256"}],"outputs":[{"name":"","type":"uint256","internalType":"uint256"}],"stateMutability":"view"},{"type":"function","name":"tokenOfOwnerByIndex","inputs":[{"name":"owner","type":"address","internalType":"address"},{"name":"index","type":"uint256","internalType":"uint256"}],"outputs":[{"name":"","type":"uint256","internalType":"uint256"}],"stateMutability":"view"},{"type":"function","name":"tokenURI","inputs":[{"name":"tokenId","type":"uint256","internalType":"uint256"}],"outputs":[{"name":"","type":"string","internalType":"string"}],"stateMutability":"view"},{"type":"function","name":"totalSupply","inputs":[],"outputs":[{"name":"","type":"uint256","internalType":"uint256"}],"stateMutability":"view"},{"type":"function","name":"transferFrom","inputs":[{"name":"from","type":"address","internalType":"address"},{"name":"to","type":"address","internalType":"address"},{"name":"tokenId","type":"uint256","internalType":"uint256"}],"outputs":[],"stateMutability":"nonpayable"},{"type":"event","name":"Approval","inputs":[{"name":"owner","type":"address","indexed":true,"internalType":"address"},{"name":"approved","type":"address","indexed":true,"internalType":"address"},{"name":"tokenId","type":"uint256","indexed":true,"internalType":"uint256"}],"anonymous":false},{"type":"event","name":"ApprovalForAll","inputs":[{"name":"owner","type":"address","indexed":true,"internalType":"address"},{"name":"operator","type":"address","indexed":true,"internalType":"address"},{"name":"approved","type":"bool","indexed":false,"internalType":"bool"}],"anonymous":false},{"type":"event","name":"RoleAdminChanged","inputs":[{"name":"role","type":"bytes32","indexed":true,"internalType":"bytes32"},{"name":"previousAdminRole","type":"bytes32","indexed":true,"internalType":"bytes32"},{"name":"newAdminRole","type":"bytes32","indexed":true,"internalType":"bytes32"}],"anonymous":false},{"type":"event","name":"RoleGranted","inputs":[{"name":"role","type":"bytes32","indexed":true,"internalType":"bytes32"},{"name":"account","type":"address","indexed":true,"internalType":"address"},{"name":"sender","type":"address","indexed":true,"internalType":"address"}],"anonymous":false},{"type":"event","name":"RoleRevoked","inputs":[{"name":"role","type":"bytes32","indexed":true,"internalType":"bytes32"},{"name":"account","type":"address","indexed":true,"internalType":"address"},{"name":"sender","type":"address","indexed":true,"internalType":"address"}],"anonymous":false},{"type":"event","name":"Transfer","inputs":[{"name":"from","type":"address","indexed":true,"internalType":"address"},{"name":"to","type":"address","indexed":true,"internalType":"address"},{"name":"tokenId","type":"uint256","indexed":true,"internalType":"uint256"}],"anonymous":false},{"type":"error","name":"AccessControlBadConfirmation","inputs":[]},{"type":"error","name":"AccessControlUnauthorizedAccount","inputs":[{"name":"account","type":"address","internalType":"address"},{"name":"neededRole","type":"bytes32","internalType":"bytes32"}]},{"type":"error","name":"ERC721EnumerableForbiddenBatchMint","inputs":[]},{"type":"error","name":"ERC721IncorrectOwner","inputs":[{"name":"sender","type":"address","internalType":"address"},{"name":"tokenId","type":"uint256","internalType":"uint256"},{"name":"owner","type":"address","internalType":"address"}]},{"type":"error","name":"ERC721InsufficientApproval","inputs":[{"name":"operator","type":"address","internalType":"address"},{"name":"tokenId","type":"uint256","internalType":"uint256"}]},{"type":"error","name":"ERC721InvalidApprover","inputs":[{"name":"approver","type":"address","internalType":"address"}]},{"type":"error","name":"ERC721InvalidOperator","inputs":[{"name":"operator","type":"address","internalType":"address"}]},{"type":"error","name":"ERC721InvalidOwner","inputs":[{"name":"owner","type":"address","internalType":"address"}]},{"type":"error","name":"ERC721InvalidReceiver","inputs":[{"name":"receiver","type":"address","internalType":"address"}]},{"type":"error","name":"ERC721InvalidSender","inputs":[{"name":"sender","type":"address","internalType":"address"}]},{"type":"error","name":"ERC721NonexistentToken","inputs":[{"name":"tokenId","type":"uint256","internalType":"uint256"}]},{"type":"error","name":"ERC721OutOfBoundsIndex","inputs":[{"name":"owner","type":"address","internalType":"address"},{"name":"index","type":"uint256","internalType":"uint256"}]},{"type":"error","name":"OctoChestDontExist","inputs":[]}],"bytecode":{"object":"0x608060405234801561000f575f5ffd5b5060405161339c38038061339c833981810160405281019061003191906102c8565b6040518060400160405280600981526020017f4f63746f436865737400000000000000000000000000000000000000000000008152506040518060400160405280600281526020017f4f43000000000000000000000000000000000000000000000000000000000000815250815f90816100ab9190610543565b5080600190816100bb9190610543565b5050506100d05f5f1b8361010960201b60201c565b506101017f9f2df0fed2c77648de5860a4cc508cd0818c85b8b8a1ab4ceeef8d981c8956a68261010960201b60201c565b505050610612565b5f61011a83836101ff60201b60201c565b6101f557600160065f8581526020019081526020015f205f015f8473ffffffffffffffffffffffffffffffffffffffff1673ffffffffffffffffffffffffffffffffffffffff1681526020019081526020015f205f6101000a81548160ff02191690831515021790555061019261026360201b60201c565b73ffffffffffffffffffffffffffffffffffffffff168273ffffffffffffffffffffffffffffffffffffffff16847f2f8788117e7eff1d82e926ec794901d17c78024a50270940304540a733656f0d60405160405180910390a4600190506101f9565b5f90505b92915050565b5f60065f8481526020019081526020015f205f015f8373ffffffffffffffffffffffffffffffffffffffff1673ffffffffffffffffffffffffffffffffffffffff1681526020019081526020015f205f9054906101000a900460ff16905092915050565b5f33905090565b5f5ffd5b5f73ffffffffffffffffffffffffffffffffffffffff82169050919050565b5f6102978261026e565b9050919050565b6102a78161028d565b81146102b1575f5ffd5b50565b5f815190506102c28161029e565b92915050565b5f5f604083850312156102de576102dd61026a565b5b5f6102eb858286016102b4565b92505060206102fc858286016102b4565b9150509250929050565b5f81519050919050565b7f4e487b71000000000000000000000000000000000000000000000000000000005f52604160045260245ffd5b7f4e487b71000000000000000000000000000000000000000000000000000000005f52602260045260245ffd5b5f600282049050600182168061038157607f821691505b6020821081036103945761039361033d565b5b50919050565b5f819050815f5260205f209050919050565b5f6020601f8301049050919050565b5f82821b905092915050565b5f600883026103f67fffffffffffffffffffffffffffffffffffffffffffffffffffffffffffffffff826103bb565b61040086836103bb565b95508019841693508086168417925050509392505050565b5f819050919050565b5f819050919050565b5f61044461043f61043a84610418565b610421565b610418565b9050919050565b5f819050919050565b61045d8361042a565b6104716104698261044b565b8484546103c7565b825550505050565b5f5f905090565b610488610479565b610493818484610454565b505050565b5b818110156104b6576104ab5f82610480565b600181019050610499565b5050565b601f8211156104fb576104cc8161039a565b6104d5846103ac565b810160208510156104e4578190505b6104f86104f0856103ac565b830182610498565b50505b505050565b5f82821c905092915050565b5f61051b5f1984600802610500565b1980831691505092915050565b5f610533838361050c565b9150826002028217905092915050565b61054c82610306565b67ffffffffffffffff81111561056557610564610310565b5b61056f825461036a565b61057a8282856104ba565b5f60209050601f8311600181146105ab575f8415610599578287015190505b6105a38582610528565b86555061060a565b601f1984166105b98661039a565b5f5b828110156105e0578489015182556001820191506020850194506020810190506105bb565b868310156105fd57848901516105f9601f89168261050c565b8355505b6001600288020188555050505b505050505050565b612d7d8061061f5f395ff3fe608060405234801561000f575f5ffd5b5060043610610171575f3560e01c806342966c68116100dc578063a217fddf11610095578063c87b56dd1161006f578063c87b56dd1461047d578063d5391393146104ad578063d547741f146104cb578063e985e9c5146104e757610171565b8063a217fddf14610427578063a22cb46514610445578063b88d4fde1461046157610171565b806342966c681461032d5780634f6ccce7146103495780636352211e1461037957806370a08231146103a957806391d14854146103d957806395d89b411461040957610171565b8063248a9ca31161012e578063248a9ca3146102495780632f2ff15d146102795780632f745c591461029557806336568abe146102c557806340d097c3146102e157806342842e0e1461031157610171565b806301ffc9a71461017557806306fdde03146101a5578063081812fc146101c3578063095ea7b3146101f357806318160ddd1461020f57806323b872dd1461022d575b5f5ffd5b61018f600480360381019061018a91906122ad565b610517565b60405161019c91906122f2565b60405180910390f35b6101ad610528565b6040516101ba919061237b565b60405180910390f35b6101dd60048036038101906101d891906123ce565b6105b7565b6040516101ea9190612438565b60405180910390f35b61020d6004803603810190610208919061247b565b6105d2565b005b6102176105e8565b60405161022491906124c8565b60405180910390f35b610247600480360381019061024291906124e1565b6105f4565b005b610263600480360381019061025e9190612564565b6106f3565b604051610270919061259e565b60405180910390f35b610293600480360381019061028e91906125b7565b610710565b005b6102af60048036038101906102aa919061247b565b610732565b6040516102bc91906124c8565b60405180910390f35b6102df60048036038101906102da91906125b7565b6107d6565b005b6102fb60048036038101906102f691906125f5565b610851565b60405161030891906124c8565b60405180910390f35b61032b600480360381019061032691906124e1565b61091b565b005b610347600480360381019061034291906123ce565b61093a565b005b610363600480360381019061035e91906123ce565b610950565b60405161037091906124c8565b60405180910390f35b610393600480360381019061038e91906123ce565b6109c2565b6040516103a09190612438565b60405180910390f35b6103c360048036038101906103be91906125f5565b6109d3565b6040516103d091906124c8565b60405180910390f35b6103f360048036038101906103ee91906125b7565b610a89565b60405161040091906122f2565b60405180910390f35b610411610aed565b60405161041e919061237b565b60405180910390f35b61042f610b7d565b60405161043c919061259e565b60405180910390f35b61045f600480360381019061045a919061264a565b610b83565b005b61047b600480360381019061047691906127b4565b610b99565b005b610497600480360381019061049291906123ce565b610bbe565b6040516104a4919061237b565b60405180910390f35b6104b5610c8f565b6040516104c2919061259e565b60405180910390f35b6104e560048036038101906104e091906125b7565b610cb3565b005b61050160048036038101906104fc9190612834565b610cd5565b60405161050e91906122f2565b60405180910390f35b5f61052182610d63565b9050919050565b60605f80546105369061289f565b80601f01602080910402602001604051908101604052809291908181526020018280546105629061289f565b80156105ad5780601f10610584576101008083540402835291602001916105ad565b820191905f5260205f20905b81548152906001019060200180831161059057829003601f168201915b5050505050905090565b5f6105c182610ddc565b506105cb82610e62565b9050919050565b6105e482826105df610e9b565b610ea2565b5050565b5f600980549050905090565b5f73ffffffffffffffffffffffffffffffffffffffff168273ffffffffffffffffffffffffffffffffffffffff1603610664575f6040517f64a0ae9200000000000000000000000000000000000000000000000000000000815260040161065b9190612438565b60405180910390fd5b5f6106778383610672610e9b565b610eb4565b90508373ffffffffffffffffffffffffffffffffffffffff168173ffffffffffffffffffffffffffffffffffffffff16146106ed578382826040517f64283d7b0000000000000000000000000000000000000000000000000000000081526004016106e4939291906128cf565b60405180910390fd5b50505050565b5f60065f8381526020019081526020015f20600101549050919050565b610719826106f3565b61072281610ec9565b61072c8383610edd565b50505050565b5f61073c836109d3565b82106107815782826040517fa57d13dc000000000000000000000000000000000000000000000000000000008152600401610778929190612904565b60405180910390fd5b60075f8473ffffffffffffffffffffffffffffffffffffffff1673ffffffffffffffffffffffffffffffffffffffff1681526020019081526020015f205f8381526020019081526020015f2054905092915050565b6107de610e9b565b73ffffffffffffffffffffffffffffffffffffffff168173ffffffffffffffffffffffffffffffffffffffff1614610842576040517f6697b23200000000000000000000000000000000000000000000000000000000815260040160405180910390fd5b61084c8282610fc7565b505050565b5f7f9f2df0fed2c77648de5860a4cc508cd0818c85b8b8a1ab4ceeef8d981c8956a661087c81610ec9565b5f600b5f81548092919061088f90612958565b91905055905061089f84826110b1565b5f600160144287856040516020016108b993929190612a04565b604051602081830303815290604052805190602001205f1c6108db9190612a6d565b6108e59190612a9d565b905080600c5f8481526020019081526020015f205f6101000a81548160ff021916908360ff160217905550819350505050919050565b61093583838360405180602001604052805f815250610b99565b505050565b61094c5f82610947610e9b565b610eb4565b5050565b5f6109596105e8565b821061099e575f826040517fa57d13dc000000000000000000000000000000000000000000000000000000008152600401610995929190612904565b60405180910390fd5b600982815481106109b2576109b1612ad0565b5b905f5260205f2001549050919050565b5f6109cc82610ddc565b9050919050565b5f5f73ffffffffffffffffffffffffffffffffffffffff168273ffffffffffffffffffffffffffffffffffffffff1603610a44575f6040517f89c62b64000000000000000000000000000000000000000000000000000000008152600401610a3b9190612438565b60405180910390fd5b60035f8373ffffffffffffffffffffffffffffffffffffffff1673ffffffffffffffffffffffffffffffffffffffff1681526020019081526020015f20549050919050565b5f60065f8481526020019081526020015f205f015f8373ffffffffffffffffffffffffffffffffffffffff1673ffffffffffffffffffffffffffffffffffffffff1681526020019081526020015f205f9054906101000a900460ff16905092915050565b606060018054610afc9061289f565b80601f0160208091040260200160405190810160405280929190818152602001828054610b289061289f565b8015610b735780601f10610b4a57610100808354040283529160200191610b73565b820191905f5260205f20905b815481529060010190602001808311610b5657829003601f168201915b5050505050905090565b5f5f1b81565b610b95610b8e610e9b565b83836110ce565b5050565b610ba48484846105f4565b610bb8610baf610e9b565b85858585611237565b50505050565b60605f73ffffffffffffffffffffffffffffffffffffffff16610be0836113e3565b73ffffffffffffffffffffffffffffffffffffffff1603610c2d576040517fbc012f6800000000000000000000000000000000000000000000000000000000815260040160405180910390fd5b5f600c5f8481526020019081526020015f205f9054906101000a900460ff1690505f610c5b8260ff1661141c565b9050610c656114e6565b81604051602001610c77929190612b81565b60405160208183030381529060405292505050919050565b7f9f2df0fed2c77648de5860a4cc508cd0818c85b8b8a1ab4ceeef8d981c8956a681565b610cbc826106f3565b610cc581610ec9565b610ccf8383610fc7565b50505050565b5f60055f8473ffffffffffffffffffffffffffffffffffffffff1673ffffffffffffffffffffffffffffffffffffffff1681526020019081526020015f205f8373ffffffffffffffffffffffffffffffffffffffff1673ffffffffffffffffffffffffffffffffffffffff1681526020019081526020015f205f9054906101000a900460ff16905092915050565b5f7f780e9d63000000000000000000000000000000000000000000000000000000007bffffffffffffffffffffffffffffffffffffffffffffffffffffffff1916827bffffffffffffffffffffffffffffffffffffffffffffffffffffffff19161480610dd55750610dd482611506565b5b9050919050565b5f5f610de7836113e3565b90505f73ffffffffffffffffffffffffffffffffffffffff168173ffffffffffffffffffffffffffffffffffffffff1603610e5957826040517f7e273289000000000000000000000000000000000000000000000000000000008152600401610e5091906124c8565b60405180910390fd5b80915050919050565b5f60045f8381526020019081526020015f205f9054906101000a900473ffffffffffffffffffffffffffffffffffffffff169050919050565b5f33905090565b610eaf838383600161157f565b505050565b5f610ec084848461173e565b90509392505050565b610eda81610ed5610e9b565b611858565b50565b5f610ee88383610a89565b610fbd57600160065f8581526020019081526020015f205f015f8473ffffffffffffffffffffffffffffffffffffffff1673ffffffffffffffffffffffffffffffffffffffff1681526020019081526020015f205f6101000a81548160ff021916908315150217905550610f5a610e9b565b73ffffffffffffffffffffffffffffffffffffffff168273ffffffffffffffffffffffffffffffffffffffff16847f2f8788117e7eff1d82e926ec794901d17c78024a50270940304540a733656f0d60405160405180910390a460019050610fc1565b5f90505b92915050565b5f610fd28383610a89565b156110a7575f60065f8581526020019081526020015f205f015f8473ffffffffffffffffffffffffffffffffffffffff1673ffffffffffffffffffffffffffffffffffffffff1681526020019081526020015f205f6101000a81548160ff021916908315150217905550611044610e9b565b73ffffffffffffffffffffffffffffffffffffffff168273ffffffffffffffffffffffffffffffffffffffff16847ff6391f5c32d9c69d2a47ea670b442974b53935d1edc7fd64eb21e047a839171b60405160405180910390a4600190506110ab565b5f90505b92915050565b6110ca828260405180602001604052805f8152506118a9565b5050565b5f73ffffffffffffffffffffffffffffffffffffffff168273ffffffffffffffffffffffffffffffffffffffff160361113e57816040517f5b08ba180000000000000000000000000000000000000000000000000000000081526004016111359190612438565b60405180910390fd5b8060055f8573ffffffffffffffffffffffffffffffffffffffff1673ffffffffffffffffffffffffffffffffffffffff1681526020019081526020015f205f8473ffffffffffffffffffffffffffffffffffffffff1673ffffffffffffffffffffffffffffffffffffffff1681526020019081526020015f205f6101000a81548160ff0219169083151502179055508173ffffffffffffffffffffffffffffffffffffffff168373ffffffffffffffffffffffffffffffffffffffff167f17307eab39ab6107e8899845ad3d59bd9653f200f220920489ca2b5937696c318360405161122a91906122f2565b60405180910390a3505050565b5f8373ffffffffffffffffffffffffffffffffffffffff163b11156113dc578273ffffffffffffffffffffffffffffffffffffffff1663150b7a02868685856040518563ffffffff1660e01b81526004016112959493929190612c01565b6020604051808303815f875af19250505080156112d057506040513d601f19601f820116820180604052508101906112cd9190612c5f565b60015b611351573d805f81146112fe576040519150601f19603f3d011682016040523d82523d5f602084013e611303565b606091505b505f81510361134957836040517f64a0ae920000000000000000000000000000000000000000000000000000000081526004016113409190612438565b60405180910390fd5b805181602001fd5b63150b7a0260e01b7bffffffffffffffffffffffffffffffffffffffffffffffffffffffff1916817bffffffffffffffffffffffffffffffffffffffffffffffffffffffff1916146113da57836040517f64a0ae920000000000000000000000000000000000000000000000000000000081526004016113d19190612438565b60405180910390fd5b505b5050505050565b5f60025f8381526020019081526020015f205f9054906101000a900473ffffffffffffffffffffffffffffffffffffffff169050919050565b60605f600161142a846118cc565b0190505f8167ffffffffffffffff81111561144857611447612690565b5b6040519080825280601f01601f19166020018201604052801561147a5781602001600182028036833780820191505090505b5090505f82602001820190505b6001156114db578080600190039150507f3031323334353637383961626364656600000000000000000000000000000000600a86061a8153600a85816114d0576114cf612a40565b5b0494505f8503611487575b819350505050919050565b6060604051806060016040528060368152602001612d1260369139905090565b5f7f7965db0b000000000000000000000000000000000000000000000000000000007bffffffffffffffffffffffffffffffffffffffffffffffffffffffff1916827bffffffffffffffffffffffffffffffffffffffffffffffffffffffff19161480611578575061157782611a1d565b5b9050919050565b80806115b757505f73ffffffffffffffffffffffffffffffffffffffff168273ffffffffffffffffffffffffffffffffffffffff1614155b156116e9575f6115c684610ddc565b90505f73ffffffffffffffffffffffffffffffffffffffff168373ffffffffffffffffffffffffffffffffffffffff161415801561163057508273ffffffffffffffffffffffffffffffffffffffff168173ffffffffffffffffffffffffffffffffffffffff1614155b801561164357506116418184610cd5565b155b1561168557826040517fa9fbf51f00000000000000000000000000000000000000000000000000000000815260040161167c9190612438565b60405180910390fd5b81156116e757838573ffffffffffffffffffffffffffffffffffffffff168273ffffffffffffffffffffffffffffffffffffffff167f8c5be1e5ebec7d5bd14f71427d1e84f3dd0314c0f7b2291e5b200ac8c7c3b92560405160405180910390a45b505b8360045f8581526020019081526020015f205f6101000a81548173ffffffffffffffffffffffffffffffffffffffff021916908373ffffffffffffffffffffffffffffffffffffffff16021790555050505050565b5f5f61174b858585611afe565b90505f73ffffffffffffffffffffffffffffffffffffffff168173ffffffffffffffffffffffffffffffffffffffff160361178e5761178984611d09565b6117cd565b8473ffffffffffffffffffffffffffffffffffffffff168173ffffffffffffffffffffffffffffffffffffffff16146117cc576117cb8185611d4d565b5b5b5f73ffffffffffffffffffffffffffffffffffffffff168573ffffffffffffffffffffffffffffffffffffffff160361180e5761180984611e24565b61184d565b8473ffffffffffffffffffffffffffffffffffffffff168173ffffffffffffffffffffffffffffffffffffffff161461184c5761184b8585611ee4565b5b5b809150509392505050565b6118628282610a89565b6118a55780826040517fe2517d3f00000000000000000000000000000000000000000000000000000000815260040161189c929190612c8a565b60405180910390fd5b5050565b6118b38383611f68565b6118c76118be610e9b565b5f858585611237565b505050565b5f5f5f90507a184f03e93ff9f4daa797ed6e38ed64bf6a1f0100000000000000008310611928577a184f03e93ff9f4daa797ed6e38ed64bf6a1f010000000000000000838161191e5761191d612a40565b5b0492506040810190505b6d04ee2d6d415b85acef81000000008310611965576d04ee2d6d415b85acef8100000000838161195b5761195a612a40565b5b0492506020810190505b662386f26fc10000831061199457662386f26fc10000838161198a57611989612a40565b5b0492506010810190505b6305f5e10083106119bd576305f5e10083816119b3576119b2612a40565b5b0492506008810190505b61271083106119e25761271083816119d8576119d7612a40565b5b0492506004810190505b60648310611a0557606483816119fb576119fa612a40565b5b0492506002810190505b600a8310611a14576001810190505b80915050919050565b5f7f80ac58cd000000000000000000000000000000000000000000000000000000007bffffffffffffffffffffffffffffffffffffffffffffffffffffffff1916827bffffffffffffffffffffffffffffffffffffffffffffffffffffffff19161480611ae757507f5b5e139f000000000000000000000000000000000000000000000000000000007bffffffffffffffffffffffffffffffffffffffffffffffffffffffff1916827bffffffffffffffffffffffffffffffffffffffffffffffffffffffff1916145b80611af75750611af68261205b565b5b9050919050565b5f5f611b09846113e3565b90505f73ffffffffffffffffffffffffffffffffffffffff168373ffffffffffffffffffffffffffffffffffffffff1614611b4a57611b498184866120c4565b5b5f73ffffffffffffffffffffffffffffffffffffffff168173ffffffffffffffffffffffffffffffffffffffff1614611bd557611b895f855f5f61157f565b600160035f8373ffffffffffffffffffffffffffffffffffffffff1673ffffffffffffffffffffffffffffffffffffffff1681526020019081526020015f205f82825403925050819055505b5f73ffffffffffffffffffffffffffffffffffffffff168573ffffffffffffffffffffffffffffffffffffffff1614611c5457600160035f8773ffffffffffffffffffffffffffffffffffffffff1673ffffffffffffffffffffffffffffffffffffffff1681526020019081526020015f205f82825401925050819055505b8460025f8681526020019081526020015f205f6101000a81548173ffffffffffffffffffffffffffffffffffffffff021916908373ffffffffffffffffffffffffffffffffffffffff160217905550838573ffffffffffffffffffffffffffffffffffffffff168273ffffffffffffffffffffffffffffffffffffffff167fddf252ad1be2c89b69c2b068fc378daa952ba7f163c4a11628f55a4df523b3ef60405160405180910390a4809150509392505050565b600980549050600a5f8381526020019081526020015f2081905550600981908060018154018082558091505060019003905f5260205f20015f909190919091505550565b5f611d57836109d3565b90505f60085f8481526020019081526020015f205490505f60075f8673ffffffffffffffffffffffffffffffffffffffff1673ffffffffffffffffffffffffffffffffffffffff1681526020019081526020015f209050828214611df6575f815f8581526020019081526020015f2054905080825f8581526020019081526020015f20819055508260085f8381526020019081526020015f2081905550505b60085f8581526020019081526020015f205f9055805f8481526020019081526020015f205f90555050505050565b5f6001600980549050611e379190612cb1565b90505f600a5f8481526020019081526020015f205490505f60098381548110611e6357611e62612ad0565b5b905f5260205f20015490508060098381548110611e8357611e82612ad0565b5b905f5260205f20018190555081600a5f8381526020019081526020015f2081905550600a5f8581526020019081526020015f205f90556009805480611ecb57611eca612ce4565b5b600190038181905f5260205f20015f9055905550505050565b5f6001611ef0846109d3565b611efa9190612cb1565b90508160075f8573ffffffffffffffffffffffffffffffffffffffff1673ffffffffffffffffffffffffffffffffffffffff1681526020019081526020015f205f8381526020019081526020015f20819055508060085f8481526020019081526020015f2081905550505050565b5f73ffffffffffffffffffffffffffffffffffffffff168273ffffffffffffffffffffffffffffffffffffffff1603611fd8575f6040517f64a0ae92000000000000000000000000000000000000000000000000000000008152600401611fcf9190612438565b60405180910390fd5b5f611fe483835f610eb4565b90505f73ffffffffffffffffffffffffffffffffffffffff168173ffffffffffffffffffffffffffffffffffffffff1614612056575f6040517f73c6ac6e00000000000000000000000000000000000000000000000000000000815260040161204d9190612438565b60405180910390fd5b505050565b5f7f01ffc9a7000000000000000000000000000000000000000000000000000000007bffffffffffffffffffffffffffffffffffffffffffffffffffffffff1916827bffffffffffffffffffffffffffffffffffffffffffffffffffffffff1916149050919050565b6120cf838383612187565b612182575f73ffffffffffffffffffffffffffffffffffffffff168373ffffffffffffffffffffffffffffffffffffffff160361214357806040517f7e27328900000000000000000000000000000000000000000000000000000000815260040161213a91906124c8565b60405180910390fd5b81816040517f177e802f000000000000000000000000000000000000000000000000000000008152600401612179929190612904565b60405180910390fd5b505050565b5f5f73ffffffffffffffffffffffffffffffffffffffff168373ffffffffffffffffffffffffffffffffffffffff161415801561223e57508273ffffffffffffffffffffffffffffffffffffffff168473ffffffffffffffffffffffffffffffffffffffff1614806121ff57506121fe8484610cd5565b5b8061223d57508273ffffffffffffffffffffffffffffffffffffffff1661222583610e62565b73ffffffffffffffffffffffffffffffffffffffff16145b5b90509392505050565b5f604051905090565b5f5ffd5b5f5ffd5b5f7fffffffff0000000000000000000000000000000000000000000000000000000082169050919050565b61228c81612258565b8114612296575f5ffd5b50565b5f813590506122a781612283565b92915050565b5f602082840312156122c2576122c1612250565b5b5f6122cf84828501612299565b91505092915050565b5f8115159050919050565b6122ec816122d8565b82525050565b5f6020820190506123055f8301846122e3565b92915050565b5f81519050919050565b5f82825260208201905092915050565b8281835e5f83830152505050565b5f601f19601f8301169050919050565b5f61234d8261230b565b6123578185612315565b9350612367818560208601612325565b61237081612333565b840191505092915050565b5f6020820190508181035f8301526123938184612343565b905092915050565b5f819050919050565b6123ad8161239b565b81146123b7575f5ffd5b50565b5f813590506123c8816123a4565b92915050565b5f602082840312156123e3576123e2612250565b5b5f6123f0848285016123ba565b91505092915050565b5f73ffffffffffffffffffffffffffffffffffffffff82169050919050565b5f612422826123f9565b9050919050565b61243281612418565b82525050565b5f60208201905061244b5f830184612429565b92915050565b61245a81612418565b8114612464575f5ffd5b50565b5f8135905061247581612451565b92915050565b5f5f6040838503121561249157612490612250565b5b5f61249e85828601612467565b92505060206124af858286016123ba565b9150509250929050565b6124c28161239b565b82525050565b5f6020820190506124db5f8301846124b9565b92915050565b5f5f5f606084860312156124f8576124f7612250565b5b5f61250586828701612467565b935050602061251686828701612467565b9250506040612527868287016123ba565b9150509250925092565b5f819050919050565b61254381612531565b811461254d575f5ffd5b50565b5f8135905061255e8161253a565b92915050565b5f6020828403121561257957612578612250565b5b5f61258684828501612550565b91505092915050565b61259881612531565b82525050565b5f6020820190506125b15f83018461258f565b92915050565b5f5f604083850312156125cd576125cc612250565b5b5f6125da85828601612550565b92505060206125eb85828601612467565b9150509250929050565b5f6020828403121561260a57612609612250565b5b5f61261784828501612467565b91505092915050565b612629816122d8565b8114612633575f5ffd5b50565b5f8135905061264481612620565b92915050565b5f5f604083850312156126605761265f612250565b5b5f61266d85828601612467565b925050602061267e85828601612636565b9150509250929050565b5f5ffd5b5f5ffd5b7f4e487b71000000000000000000000000000000000000000000000000000000005f52604160045260245ffd5b6126c682612333565b810181811067ffffffffffffffff821117156126e5576126e4612690565b5b80604052505050565b5f6126f7612247565b905061270382826126bd565b919050565b5f67ffffffffffffffff82111561272257612721612690565b5b61272b82612333565b9050602081019050919050565b828183375f83830152505050565b5f61275861275384612708565b6126ee565b9050828152602081018484840111156127745761277361268c565b5b61277f848285612738565b509392505050565b5f82601f83011261279b5761279a612688565b5b81356127ab848260208601612746565b91505092915050565b5f5f5f5f608085870312156127cc576127cb612250565b5b5f6127d987828801612467565b94505060206127ea87828801612467565b93505060406127fb878288016123ba565b925050606085013567ffffffffffffffff81111561281c5761281b612254565b5b61282887828801612787565b91505092959194509250565b5f5f6040838503121561284a57612849612250565b5b5f61285785828601612467565b925050602061286885828601612467565b9150509250929050565b7f4e487b71000000000000000000000000000000000000000000000000000000005f52602260045260245ffd5b5f60028204905060018216806128b657607f821691505b6020821081036128c9576128c8612872565b5b50919050565b5f6060820190506128e25f830186612429565b6128ef60208301856124b9565b6128fc6040830184612429565b949350505050565b5f6040820190506129175f830185612429565b61292460208301846124b9565b9392505050565b7f4e487b71000000000000000000000000000000000000000000000000000000005f52601160045260245ffd5b5f6129628261239b565b91507fffffffffffffffffffffffffffffffffffffffffffffffffffffffffffffffff82036129945761299361292b565b5b600182019050919050565b5f819050919050565b6129b96129b48261239b565b61299f565b82525050565b5f8160601b9050919050565b5f6129d5826129bf565b9050919050565b5f6129e6826129cb565b9050919050565b6129fe6129f982612418565b6129dc565b82525050565b5f612a0f82866129a8565b602082019150612a1f82856129ed565b601482019150612a2f82846129a8565b602082019150819050949350505050565b7f4e487b71000000000000000000000000000000000000000000000000000000005f52601260045260245ffd5b5f612a778261239b565b9150612a828361239b565b925082612a9257612a91612a40565b5b828206905092915050565b5f612aa78261239b565b9150612ab28361239b565b9250828201905080821115612aca57612ac961292b565b5b92915050565b7f4e487b71000000000000000000000000000000000000000000000000000000005f52603260045260245ffd5b5f81905092915050565b5f612b118261230b565b612b1b8185612afd565b9350612b2b818560208601612325565b80840191505092915050565b7f2e6a736f6e0000000000000000000000000000000000000000000000000000005f82015250565b5f612b6b600583612afd565b9150612b7682612b37565b600582019050919050565b5f612b8c8285612b07565b9150612b988284612b07565b9150612ba382612b5f565b91508190509392505050565b5f81519050919050565b5f82825260208201905092915050565b5f612bd382612baf565b612bdd8185612bb9565b9350612bed818560208601612325565b612bf681612333565b840191505092915050565b5f608082019050612c145f830187612429565b612c216020830186612429565b612c2e60408301856124b9565b8181036060830152612c408184612bc9565b905095945050505050565b5f81519050612c5981612283565b92915050565b5f60208284031215612c7457612c73612250565b5b5f612c8184828501612c4b565b91505092915050565b5f604082019050612c9d5f830185612429565b612caa602083018461258f565b9392505050565b5f612cbb8261239b565b9150612cc68361239b565b9250828203905081811115612cde57612cdd61292b565b5b92915050565b7f4e487b71000000000000000000000000000000000000000000000000000000005f52603160045260245ffdfe697066733a2f2f516d5a5333346b74473632366133477175374343335169486552745657517a445374374c73444748755a6f4a7a772fa26469706673582212207968df17272c59ac3603cfcb6dac61264fb922de6045d844b5e66bd51209fca564736f6c634300081c0033","linkReferences":{}},"methodIdentifiers":{"DEFAULT_ADMIN_ROLE()":"a217fddf","MINTER_ROLE()":"d5391393","approve(address,uint256)":"095ea7b3","balanceOf(address)":"70a08231","burn(uint256)":"42966c68","getApproved(uint256)":"081812fc","getRoleAdmin(bytes32)":"248a9ca3","grantRole(bytes32,address)":"2f2ff15d","hasRole(bytes32,address)":"91d14854","isApprovedForAll(address,address)":"e985e9c5","name()":"06fdde03","ownerOf(uint256)":"6352211e","renounceRole(bytes32,address)":"36568abe","revokeRole(bytes32,address)":"d547741f","safeMint(address)":"40d097c3","safeTransferFrom(address,address,uint256)":"42842e0e","safeTransferFrom(address,address,uint256,bytes)":"b88d4fde","setApprovalForAll(address,bool)":"a22cb465","supportsInterface(bytes4)":"01ffc9a7","symbol()":"95d89b41","tokenByIndex(uint256)":"4f6ccce7","tokenOfOwnerByIndex(address,uint256)":"2f745c59","tokenURI(uint256)":"c87b56dd","totalSupply()":"18160ddd","transferFrom(address,address,uint256)":"23b872dd"},"id":0}