{"abi":[{"type":"constructor","inputs":[{"name":"defaultAdmin","type":"address","internalType":"address"},{"name":"minter","type":"address","internalType":"address"}],"stateMutability":"nonpayable"},{"type":"function","name":"DEFAULT_ADMIN_ROLE","inputs":[],"outputs":[{"name":"","type":"bytes32","internalType":"bytes32"}],"stateMutability":"view"},{"type":"function","name":"MINTER_ROLE","inputs":[],"outputs":[{"name":"","type":"bytes32","internalType":"bytes32"}],"stateMutability":"view"},{"type":"function","name":"approve","inputs":[{"name":"to","type":"address","internalType":"address"},{"name":"tokenId","type":"uint256","internalType":"uint256"}],"outputs":[],"stateMutability":"nonpayable"},{"type":"function","name":"balanceOf","inputs":[{"name":"owner","type":"address","internalType":"address"}],"outputs":[{"name":"","type":"uint256","internalType":"uint256"}],"stateMutability":"view"},{"type":"function","name":"burn","inputs":[{"name":"tokenId","type":"uint256","internalType":"uint256"}],"outputs":[],"stateMutability":"nonpayable"},{"type":"function","name":"getApproved","inputs":[{"name":"tokenId","type":"uint256","internalType":"uint256"}],"outputs":[{"name":"","type":"address","internalType":"address"}],"stateMutability":"view"},{"type":"function","name":"getRoleAdmin","inputs":[{"name":"role","type":"bytes32","internalType":"bytes32"}],"outputs":[{"name":"","type":"bytes32","internalType":"bytes32"}],"stateMutability":"view"},{"type":"function","name":"grantRole","inputs":[{"name":"role","type":"bytes32","internalType":"bytes32"},{"name":"account","type":"address","internalType":"address"}],"outputs":[],"stateMutability":"nonpayable"},{"type":"function","name":"hasRole","inputs":[{"name":"role","type":"bytes32","internalType":"bytes32"},{"name":"account","type":"address","internalType":"address"}],"outputs":[{"name":"","type":"bool","internalType":"bool"}],"stateMutability":"view"},{"type":"function","name":"imageNumberOf","inputs":[{"name":"tokenId","type":"uint256","internalType":"uint256"}],"outputs":[{"name":"","type":"uint8","internalType":"uint8"}],"stateMutability":"view"},{"type":"function","name":"isApprovedForAll","inputs":[{"name":"owner","type":"address","internalType":"address"},{"name":"operator","type":"address","internalType":"address"}],"outputs":[{"name":"","type":"bool","internalType":"bool"}],"stateMutability":"view"},{"type":"function","name":"name","inputs":[],"outputs":[{"name":"","type":"string","internalType":"string"}],"stateMutability":"view"},{"type":"function","name":"ownerOf","inputs":[{"name":"tokenId","type":"uint256","internalType":"uint256"}],"outputs":[{"name":"","type":"address","internalType":"address"}],"stateMutability":"view"},{"type":"function","name":"renounceRole","inputs":[{"name":"role","type":"bytes32","internalType":"bytes32"},{"name":"callerConfirmation","type":"address","internalType":"address"}],"outputs":[],"stateMutability":"nonpayable"},{"type":"function","name":"revokeRole","inputs":[{"name":"role","type":"bytes32","internalType":"bytes32"},{"name":"account","type":"address","internalType":"address"}],"outputs":[],"stateMutability":"nonpayable"},{"type":"function","name":"safeMintLevel1","inputs":[{"name":"to","type":"address","internalType":"address"}],"outputs":[{"name":"","type":"uint256","internalType":"uint256"}],"stateMutability":"nonpayable"},{"type":"function","name":"safeMintLevel2","inputs":[{"name":"to","type":"address","internalType":"address"}],"outputs":[{"name":"","type":"uint256","internalType":"uint256"}],"stateMutability":"nonpayable"},{"type":"function","name":"safeTransferFrom","inputs":[{"name":"from","type":"address","internalType":"address"},{"name":"to","type":"address","internalType":"address"},{"name":"tokenId","type":"uint256","internalType":"uint256"}],"outputs":[],"stateMutability":"nonpayable"},{"type":"function","name":"safeTransferFrom","inputs":[{"name":"from","type":"address","internalType":"address"},{"name":"to","type":"address","internalType":"address"},{"name":"tokenId","type":"uint256","internalType":"uint256"},{"name":"data","type":"bytes","internalType":"bytes"}],"outputs":[],"stateMutability":"nonpayable"},{"type":"function","name":"setApprovalForAll","inputs":[{"name":"operator","type":"address","internalType":"address"},{"name":"approved","type":"bool","internalType":"bool"}],"outputs":[],"stateMutability":"nonpayable"},{"type":"function","name":"supportsInterface","inputs":[{"name":"interfaceId","type":"bytes4","internalType":"bytes4"}],"outputs":[{"name":"","type":"bool","internalType":"bool"}],"stateMutability":"view"},{"type":"function","name":"symbol","inputs":[],"outputs":[{"name":"","type":"string","internalType":"string"}],"stateMutability":"view"},{"type":"function","name":"tokenByIndex","inputs":[{"name":"index","type":"uint256","internalType":"uint256"}],"outputs":[{"name":"","type":"uint256","internalType":"uint256"}],"stateMutability":"view"},{"type":"function","name":"tokenOfOwnerByIndex","inputs":[{"name":"owner","type":"address","internalType":"address"},{"name":"index","type":"uint256","internalType":"uint256"}],"outputs":[{"name":"","type":"uint256","internalType":"uint256"}],"stateMutability":"view"},{"type":"function","name":"tokenURI","inputs":[{"name":"tokenId","type":"uint256","internalType":"uint256"}],"outputs":[{"name":"","type":"string","internalType":"string"}],"stateMutability":"view"},{"type":"function","name":"totalSupply","inputs":[],"outputs":[{"name":"","type":"uint256","internalType":"uint256"}],"stateMutability":"view"},{"type":"function","name":"transferFrom","inputs":[{"name":"from","type":"address","internalType":"address"},{"name":"to","type":"address","internalType":"address"},{"name":"tokenId","type":"uint256","internalType":"uint256"}],"outputs":[],"stateMutability":"nonpayable"},{"type":"event","name":"Approval","inputs":[{"name":"owner","type":"address","indexed":true,"internalType":"address"},{"name":"approved","type":"address","indexed":true,"internalType":"address"},{"name":"tokenId","type":"uint256","indexed":true,"internalType":"uint256"}],"anonymous":false},{"type":"event","name":"ApprovalForAll","inputs":[{"name":"owner","type":"address","indexed":true,"internalType":"address"},{"name":"operator","type":"address","indexed":true,"internalType":"address"},{"name":"approved","type":"bool","indexed":false,"internalType":"bool"}],"anonymous":false},{"type":"event","name":"RoleAdminChanged","inputs":[{"name":"role","type":"bytes32","indexed":true,"internalType":"bytes32"},{"name":"previousAdminRole","type":"bytes32","indexed":true,"internalType":"bytes32"},{"name":"newAdminRole","type":"bytes32","indexed":true,"internalType":"bytes32"}],"anonymous":false},{"type":"event","name":"RoleGranted","inputs":[{"name":"role","type":"bytes32","indexed":true,"internalType":"bytes32"},{"name":"account","type":"address","indexed":true,"internalType":"address"},{"name":"sender","type":"address","indexed":true,"internalType":"address"}],"anonymous":false},{"type":"event","name":"RoleRevoked","inputs":[{"name":"role","type":"bytes32","indexed":true,"internalType":"bytes32"},{"name":"account","type":"address","indexed":true,"internalType":"address"},{"name":"sender","type":"address","indexed":true,"internalType":"address"}],"anonymous":false},{"type":"event","name":"Transfer","inputs":[{"name":"from","type":"address","indexed":true,"internalType":"address"},{"name":"to","type":"address","indexed":true,"internalType":"address"},{"name":"tokenId","type":"uint256","indexed":true,"internalType":"uint256"}],"anonymous":false},{"type":"error","name":"AccessControlBadConfirmation","inputs":[]},{"type":"error","name":"AccessControlUnauthorizedAccount","inputs":[{"name":"account","type":"address","internalType":"address"},{"name":"neededRole","type":"bytes32","internalType":"bytes32"}]},{"type":"error","name":"ERC721EnumerableForbiddenBatchMint","inputs":[]},{"type":"error","name":"ERC721IncorrectOwner","inputs":[{"name":"sender","type":"address","internalType":"address"},{"name":"tokenId","type":"uint256","internalType":"uint256"},{"name":"owner","type":"address","internalType":"address"}]},{"type":"error","name":"ERC721InsufficientApproval","inputs":[{"name":"operator","type":"address","internalType":"address"},{"name":"tokenId","type":"uint256","internalType":"uint256"}]},{"type":"error","name":"ERC721InvalidApprover","inputs":[{"name":"approver","type":"address","internalType":"address"}]},{"type":"error","name":"ERC721InvalidOperator","inputs":[{"name":"operator","type":"address","internalType":"address"}]},{"type":"error","name":"ERC721InvalidOwner","inputs":[{"name":"owner","type":"address","internalType":"address"}]},{"type":"error","name":"ERC721InvalidReceiver","inputs":[{"name":"receiver","type":"address","internalType":"address"}]},{"type":"error","name":"ERC721InvalidSender","inputs":[{"name":"sender","type":"address","internalType":"address"}]},{"type":"error","name":"ERC721NonexistentToken","inputs":[{"name":"tokenId","type":"uint256","internalType":"uint256"}]},{"type":"error","name":"ERC721OutOfBoundsIndex","inputs":[{"name":"owner","type":"address","internalType":"address"},{"name":"index","type":"uint256","internalType":"uint256"}]},{"type":"error","name":"OctoChestDontExist","inputs":[]}],"bytecode":{"object":"0x608060405234801561000f575f5ffd5b5060405161363b38038061363b833981810160405281019061003191906102c8565b6040518060400160405280600981526020017f4f63746f436865737400000000000000000000000000000000000000000000008152506040518060400160405280600281526020017f4f43000000000000000000000000000000000000000000000000000000000000815250815f90816100ab9190610543565b5080600190816100bb9190610543565b5050506100d05f5f1b8361010960201b60201c565b506101017f9f2df0fed2c77648de5860a4cc508cd0818c85b8b8a1ab4ceeef8d981c8956a68261010960201b60201c565b505050610612565b5f61011a83836101ff60201b60201c565b6101f557600160065f8581526020019081526020015f205f015f8473ffffffffffffffffffffffffffffffffffffffff1673ffffffffffffffffffffffffffffffffffffffff1681526020019081526020015f205f6101000a81548160ff02191690831515021790555061019261026360201b60201c565b73ffffffffffffffffffffffffffffffffffffffff168273ffffffffffffffffffffffffffffffffffffffff16847f2f8788117e7eff1d82e926ec794901d17c78024a50270940304540a733656f0d60405160405180910390a4600190506101f9565b5f90505b92915050565b5f60065f8481526020019081526020015f205f015f8373ffffffffffffffffffffffffffffffffffffffff1673ffffffffffffffffffffffffffffffffffffffff1681526020019081526020015f205f9054906101000a900460ff16905092915050565b5f33905090565b5f5ffd5b5f73ffffffffffffffffffffffffffffffffffffffff82169050919050565b5f6102978261026e565b9050919050565b6102a78161028d565b81146102b1575f5ffd5b50565b5f815190506102c28161029e565b92915050565b5f5f604083850312156102de576102dd61026a565b5b5f6102eb858286016102b4565b92505060206102fc858286016102b4565b9150509250929050565b5f81519050919050565b7f4e487b71000000000000000000000000000000000000000000000000000000005f52604160045260245ffd5b7f4e487b71000000000000000000000000000000000000000000000000000000005f52602260045260245ffd5b5f600282049050600182168061038157607f821691505b6020821081036103945761039361033d565b5b50919050565b5f819050815f5260205f209050919050565b5f6020601f8301049050919050565b5f82821b905092915050565b5f600883026103f67fffffffffffffffffffffffffffffffffffffffffffffffffffffffffffffffff826103bb565b61040086836103bb565b95508019841693508086168417925050509392505050565b5f819050919050565b5f819050919050565b5f61044461043f61043a84610418565b610421565b610418565b9050919050565b5f819050919050565b61045d8361042a565b6104716104698261044b565b8484546103c7565b825550505050565b5f5f905090565b610488610479565b610493818484610454565b505050565b5b818110156104b6576104ab5f82610480565b600181019050610499565b5050565b601f8211156104fb576104cc8161039a565b6104d5846103ac565b810160208510156104e4578190505b6104f86104f0856103ac565b830182610498565b50505b505050565b5f82821c905092915050565b5f61051b5f1984600802610500565b1980831691505092915050565b5f610533838361050c565b9150826002028217905092915050565b61054c82610306565b67ffffffffffffffff81111561056557610564610310565b5b61056f825461036a565b61057a8282856104ba565b5f60209050601f8311600181146105ab575f8415610599578287015190505b6105a38582610528565b86555061060a565b601f1984166105b98661039a565b5f5b828110156105e0578489015182556001820191506020850194506020810190506105bb565b868310156105fd57848901516105f9601f89168261050c565b8355505b6001600288020188555050505b505050505050565b61301c8061061f5f395ff3fe608060405234801561000f575f5ffd5b50600436106101a7575f3560e01c80636352211e116100f7578063b469b50611610095578063d53913931161006f578063d539139314610513578063d547741f14610531578063d8a757231461054d578063e985e9c51461057d576101a7565b8063b469b50614610497578063b88d4fde146104c7578063c87b56dd146104e3576101a7565b806391d14854116100d157806391d148541461040f57806395d89b411461043f578063a217fddf1461045d578063a22cb4651461047b576101a7565b80636352211e1461037f57806370a08231146103af5780638d090547146103df576101a7565b8063248a9ca31161016457806336568abe1161013e57806336568abe146102fb57806342842e0e1461031757806342966c68146103335780634f6ccce71461034f576101a7565b8063248a9ca31461027f5780632f2ff15d146102af5780632f745c59146102cb576101a7565b806301ffc9a7146101ab57806306fdde03146101db578063081812fc146101f9578063095ea7b31461022957806318160ddd1461024557806323b872dd14610263575b5f5ffd5b6101c560048036038101906101c09190612448565b6105ad565b6040516101d2919061248d565b60405180910390f35b6101e36105be565b6040516101f09190612516565b60405180910390f35b610213600480360381019061020e9190612569565b61064d565b60405161022091906125d3565b60405180910390f35b610243600480360381019061023e9190612616565b610668565b005b61024d61067e565b60405161025a9190612663565b60405180910390f35b61027d6004803603810190610278919061267c565b61068a565b005b610299600480360381019061029491906126ff565b610789565b6040516102a69190612739565b60405180910390f35b6102c960048036038101906102c49190612752565b6107a6565b005b6102e560048036038101906102e09190612616565b6107c8565b6040516102f29190612663565b60405180910390f35b61031560048036038101906103109190612752565b61086c565b005b610331600480360381019061032c919061267c565b6108e7565b005b61034d60048036038101906103489190612569565b610906565b005b61036960048036038101906103649190612569565b61091c565b6040516103769190612663565b60405180910390f35b61039960048036038101906103949190612569565b61098e565b6040516103a691906125d3565b60405180910390f35b6103c960048036038101906103c49190612790565b61099f565b6040516103d69190612663565b60405180910390f35b6103f960048036038101906103f49190612790565b610a55565b6040516104069190612663565b60405180910390f35b61042960048036038101906104249190612752565b610a95565b604051610436919061248d565b60405180910390f35b610447610af9565b6040516104549190612516565b60405180910390f35b610465610b89565b6040516104729190612739565b60405180910390f35b610495600480360381019061049091906127e5565b610b8f565b005b6104b160048036038101906104ac9190612569565b610ba5565b6040516104be919061283e565b60405180910390f35b6104e160048036038101906104dc9190612983565b610bd4565b005b6104fd60048036038101906104f89190612569565b610bf9565b60405161050a9190612516565b60405180910390f35b61051b610c66565b6040516105289190612739565b60405180910390f35b61054b60048036038101906105469190612752565b610c8a565b005b61056760048036038101906105629190612790565b610cac565b6040516105749190612663565b60405180910390f35b61059760048036038101906105929190612a03565b610cec565b6040516105a4919061248d565b60405180910390f35b5f6105b782610d7a565b9050919050565b60605f80546105cc90612a6e565b80601f01602080910402602001604051908101604052809291908181526020018280546105f890612a6e565b80156106435780601f1061061a57610100808354040283529160200191610643565b820191905f5260205f20905b81548152906001019060200180831161062657829003601f168201915b5050505050905090565b5f61065782610df3565b5061066182610e79565b9050919050565b61067a8282610675610eb2565b610eb9565b5050565b5f600980549050905090565b5f73ffffffffffffffffffffffffffffffffffffffff168273ffffffffffffffffffffffffffffffffffffffff16036106fa575f6040517f64a0ae920000000000000000000000000000000000000000000000000000000081526004016106f191906125d3565b60405180910390fd5b5f61070d8383610708610eb2565b610ecb565b90508373ffffffffffffffffffffffffffffffffffffffff168173ffffffffffffffffffffffffffffffffffffffff1614610783578382826040517f64283d7b00000000000000000000000000000000000000000000000000000000815260040161077a93929190612a9e565b60405180910390fd5b50505050565b5f60065f8381526020019081526020015f20600101549050919050565b6107af82610789565b6107b881610ee0565b6107c28383610ef4565b50505050565b5f6107d28361099f565b82106108175782826040517fa57d13dc00000000000000000000000000000000000000000000000000000000815260040161080e929190612ad3565b60405180910390fd5b60075f8473ffffffffffffffffffffffffffffffffffffffff1673ffffffffffffffffffffffffffffffffffffffff1681526020019081526020015f205f8381526020019081526020015f2054905092915050565b610874610eb2565b73ffffffffffffffffffffffffffffffffffffffff168173ffffffffffffffffffffffffffffffffffffffff16146108d8576040517f6697b23200000000000000000000000000000000000000000000000000000000815260040160405180910390fd5b6108e28282610fde565b505050565b61090183838360405180602001604052805f815250610bd4565b505050565b6109185f82610913610eb2565b610ecb565b5050565b5f61092561067e565b821061096a575f826040517fa57d13dc000000000000000000000000000000000000000000000000000000008152600401610961929190612ad3565b60405180910390fd5b6009828154811061097e5761097d612afa565b5b905f5260205f2001549050919050565b5f61099882610df3565b9050919050565b5f5f73ffffffffffffffffffffffffffffffffffffffff168273ffffffffffffffffffffffffffffffffffffffff1603610a10575f6040517f89c62b64000000000000000000000000000000000000000000000000000000008152600401610a0791906125d3565b60405180910390fd5b60035f8373ffffffffffffffffffffffffffffffffffffffff1673ffffffffffffffffffffffffffffffffffffffff1681526020019081526020015f20549050919050565b5f7f9f2df0fed2c77648de5860a4cc508cd0818c85b8b8a1ab4ceeef8d981c8956a6610a8081610ee0565b610a8d83600160056110c8565b915050919050565b5f60065f8481526020019081526020015f205f015f8373ffffffffffffffffffffffffffffffffffffffff1673ffffffffffffffffffffffffffffffffffffffff1681526020019081526020015f205f9054906101000a900460ff16905092915050565b606060018054610b0890612a6e565b80601f0160208091040260200160405190810160405280929190818152602001828054610b3490612a6e565b8015610b7f5780601f10610b5657610100808354040283529160200191610b7f565b820191905f5260205f20905b815481529060010190602001808311610b6257829003601f168201915b5050505050905090565b5f5f1b81565b610ba1610b9a610eb2565b83836111dc565b5050565b5f610baf82611345565b600c5f8381526020019081526020015f205f9054906101000a900460ff169050919050565b610bdf84848461068a565b610bf3610bea610eb2565b858585856113b5565b50505050565b6060610c0482611345565b5f600c5f8481526020019081526020015f205f9054906101000a900460ff1690505f610c328260ff16611561565b9050610c3c61162b565b81604051602001610c4e929190612bab565b60405160208183030381529060405292505050919050565b7f9f2df0fed2c77648de5860a4cc508cd0818c85b8b8a1ab4ceeef8d981c8956a681565b610c9382610789565b610c9c81610ee0565b610ca68383610fde565b50505050565b5f7f9f2df0fed2c77648de5860a4cc508cd0818c85b8b8a1ab4ceeef8d981c8956a6610cd781610ee0565b610ce483600660146110c8565b915050919050565b5f60055f8473ffffffffffffffffffffffffffffffffffffffff1673ffffffffffffffffffffffffffffffffffffffff1681526020019081526020015f205f8373ffffffffffffffffffffffffffffffffffffffff1673ffffffffffffffffffffffffffffffffffffffff1681526020019081526020015f205f9054906101000a900460ff16905092915050565b5f7f780e9d63000000000000000000000000000000000000000000000000000000007bffffffffffffffffffffffffffffffffffffffffffffffffffffffff1916827bffffffffffffffffffffffffffffffffffffffffffffffffffffffff19161480610dec5750610deb8261164b565b5b9050919050565b5f5f610dfe836116c4565b90505f73ffffffffffffffffffffffffffffffffffffffff168173ffffffffffffffffffffffffffffffffffffffff1603610e7057826040517f7e273289000000000000000000000000000000000000000000000000000000008152600401610e679190612663565b60405180910390fd5b80915050919050565b5f60045f8381526020019081526020015f205f9054906101000a900473ffffffffffffffffffffffffffffffffffffffff169050919050565b5f33905090565b610ec683838360016116fd565b505050565b5f610ed78484846118bc565b90509392505050565b610ef181610eec610eb2565b6119d6565b50565b5f610eff8383610a95565b610fd457600160065f8581526020019081526020015f205f015f8473ffffffffffffffffffffffffffffffffffffffff1673ffffffffffffffffffffffffffffffffffffffff1681526020019081526020015f205f6101000a81548160ff021916908315150217905550610f71610eb2565b73ffffffffffffffffffffffffffffffffffffffff168273ffffffffffffffffffffffffffffffffffffffff16847f2f8788117e7eff1d82e926ec794901d17c78024a50270940304540a733656f0d60405160405180910390a460019050610fd8565b5f90505b92915050565b5f610fe98383610a95565b156110be575f60065f8581526020019081526020015f205f015f8473ffffffffffffffffffffffffffffffffffffffff1673ffffffffffffffffffffffffffffffffffffffff1681526020019081526020015f205f6101000a81548160ff02191690831515021790555061105b610eb2565b73ffffffffffffffffffffffffffffffffffffffff168273ffffffffffffffffffffffffffffffffffffffff16847ff6391f5c32d9c69d2a47ea670b442974b53935d1edc7fd64eb21e047a839171b60405160405180910390a4600190506110c2565b5f90505b92915050565b5f8160ff168360ff161080156110e2575060148260ff1611155b611121576040517f08c379a000000000000000000000000000000000000000000000000000000000815260040161111890612c23565b60405180910390fd5b5f600b5f81548092919061113490612c6e565b9190505590506111448582611a27565b5f8460ff16600186866111579190612cb5565b6111619190612ce9565b60ff1642888560405160200161117993929190612d82565b604051602081830303815290604052805190602001205f1c61119b9190612deb565b6111a59190612e1b565b905080600c5f8481526020019081526020015f205f6101000a81548160ff021916908360ff16021790555081925050509392505050565b5f73ffffffffffffffffffffffffffffffffffffffff168273ffffffffffffffffffffffffffffffffffffffff160361124c57816040517f5b08ba1800000000000000000000000000000000000000000000000000000000815260040161124391906125d3565b60405180910390fd5b8060055f8573ffffffffffffffffffffffffffffffffffffffff1673ffffffffffffffffffffffffffffffffffffffff1681526020019081526020015f205f8473ffffffffffffffffffffffffffffffffffffffff1673ffffffffffffffffffffffffffffffffffffffff1681526020019081526020015f205f6101000a81548160ff0219169083151502179055508173ffffffffffffffffffffffffffffffffffffffff168373ffffffffffffffffffffffffffffffffffffffff167f17307eab39ab6107e8899845ad3d59bd9653f200f220920489ca2b5937696c3183604051611338919061248d565b60405180910390a3505050565b5f73ffffffffffffffffffffffffffffffffffffffff16611365826116c4565b73ffffffffffffffffffffffffffffffffffffffff16036113b2576040517fbc012f6800000000000000000000000000000000000000000000000000000000815260040160405180910390fd5b50565b5f8373ffffffffffffffffffffffffffffffffffffffff163b111561155a578273ffffffffffffffffffffffffffffffffffffffff1663150b7a02868685856040518563ffffffff1660e01b81526004016114139493929190612ea0565b6020604051808303815f875af192505050801561144e57506040513d601f19601f8201168201806040525081019061144b9190612efe565b60015b6114cf573d805f811461147c576040519150601f19603f3d011682016040523d82523d5f602084013e611481565b606091505b505f8151036114c757836040517f64a0ae920000000000000000000000000000000000000000000000000000000081526004016114be91906125d3565b60405180910390fd5b805181602001fd5b63150b7a0260e01b7bffffffffffffffffffffffffffffffffffffffffffffffffffffffff1916817bffffffffffffffffffffffffffffffffffffffffffffffffffffffff19161461155857836040517f64a0ae9200000000000000000000000000000000000000000000000000000000815260040161154f91906125d3565b60405180910390fd5b505b5050505050565b60605f600161156f84611a44565b0190505f8167ffffffffffffffff81111561158d5761158c61285f565b5b6040519080825280601f01601f1916602001820160405280156115bf5781602001600182028036833780820191505090505b5090505f82602001820190505b600115611620578080600190039150507f3031323334353637383961626364656600000000000000000000000000000000600a86061a8153600a858161161557611614612dbe565b5b0494505f85036115cc575b819350505050919050565b6060604051806060016040528060368152602001612fb160369139905090565b5f7f7965db0b000000000000000000000000000000000000000000000000000000007bffffffffffffffffffffffffffffffffffffffffffffffffffffffff1916827bffffffffffffffffffffffffffffffffffffffffffffffffffffffff191614806116bd57506116bc82611b95565b5b9050919050565b5f60025f8381526020019081526020015f205f9054906101000a900473ffffffffffffffffffffffffffffffffffffffff169050919050565b808061173557505f73ffffffffffffffffffffffffffffffffffffffff168273ffffffffffffffffffffffffffffffffffffffff1614155b15611867575f61174484610df3565b90505f73ffffffffffffffffffffffffffffffffffffffff168373ffffffffffffffffffffffffffffffffffffffff16141580156117ae57508273ffffffffffffffffffffffffffffffffffffffff168173ffffffffffffffffffffffffffffffffffffffff1614155b80156117c157506117bf8184610cec565b155b1561180357826040517fa9fbf51f0000000000000000000000000000000000000000000000000000000081526004016117fa91906125d3565b60405180910390fd5b811561186557838573ffffffffffffffffffffffffffffffffffffffff168273ffffffffffffffffffffffffffffffffffffffff167f8c5be1e5ebec7d5bd14f71427d1e84f3dd0314c0f7b2291e5b200ac8c7c3b92560405160405180910390a45b505b8360045f8581526020019081526020015f205f6101000a81548173ffffffffffffffffffffffffffffffffffffffff021916908373ffffffffffffffffffffffffffffffffffffffff16021790555050505050565b5f5f6118c9858585611c76565b90505f73ffffffffffffffffffffffffffffffffffffffff168173ffffffffffffffffffffffffffffffffffffffff160361190c5761190784611e81565b61194b565b8473ffffffffffffffffffffffffffffffffffffffff168173ffffffffffffffffffffffffffffffffffffffff161461194a576119498185611ec5565b5b5b5f73ffffffffffffffffffffffffffffffffffffffff168573ffffffffffffffffffffffffffffffffffffffff160361198c5761198784611f9c565b6119cb565b8473ffffffffffffffffffffffffffffffffffffffff168173ffffffffffffffffffffffffffffffffffffffff16146119ca576119c9858561205c565b5b5b809150509392505050565b6119e08282610a95565b611a235780826040517fe2517d3f000000000000000000000000000000000000000000000000000000008152600401611a1a929190612f29565b60405180910390fd5b5050565b611a40828260405180602001604052805f8152506120e0565b5050565b5f5f5f90507a184f03e93ff9f4daa797ed6e38ed64bf6a1f0100000000000000008310611aa0577a184f03e93ff9f4daa797ed6e38ed64bf6a1f0100000000000000008381611a9657611a95612dbe565b5b0492506040810190505b6d04ee2d6d415b85acef81000000008310611add576d04ee2d6d415b85acef81000000008381611ad357611ad2612dbe565b5b0492506020810190505b662386f26fc100008310611b0c57662386f26fc100008381611b0257611b01612dbe565b5b0492506010810190505b6305f5e1008310611b35576305f5e1008381611b2b57611b2a612dbe565b5b0492506008810190505b6127108310611b5a576127108381611b5057611b4f612dbe565b5b0492506004810190505b60648310611b7d5760648381611b7357611b72612dbe565b5b0492506002810190505b600a8310611b8c576001810190505b80915050919050565b5f7f80ac58cd000000000000000000000000000000000000000000000000000000007bffffffffffffffffffffffffffffffffffffffffffffffffffffffff1916827bffffffffffffffffffffffffffffffffffffffffffffffffffffffff19161480611c5f57507f5b5e139f000000000000000000000000000000000000000000000000000000007bffffffffffffffffffffffffffffffffffffffffffffffffffffffff1916827bffffffffffffffffffffffffffffffffffffffffffffffffffffffff1916145b80611c6f5750611c6e82612103565b5b9050919050565b5f5f611c81846116c4565b90505f73ffffffffffffffffffffffffffffffffffffffff168373ffffffffffffffffffffffffffffffffffffffff1614611cc257611cc181848661216c565b5b5f73ffffffffffffffffffffffffffffffffffffffff168173ffffffffffffffffffffffffffffffffffffffff1614611d4d57611d015f855f5f6116fd565b600160035f8373ffffffffffffffffffffffffffffffffffffffff1673ffffffffffffffffffffffffffffffffffffffff1681526020019081526020015f205f82825403925050819055505b5f73ffffffffffffffffffffffffffffffffffffffff168573ffffffffffffffffffffffffffffffffffffffff1614611dcc57600160035f8773ffffffffffffffffffffffffffffffffffffffff1673ffffffffffffffffffffffffffffffffffffffff1681526020019081526020015f205f82825401925050819055505b8460025f8681526020019081526020015f205f6101000a81548173ffffffffffffffffffffffffffffffffffffffff021916908373ffffffffffffffffffffffffffffffffffffffff160217905550838573ffffffffffffffffffffffffffffffffffffffff168273ffffffffffffffffffffffffffffffffffffffff167fddf252ad1be2c89b69c2b068fc378daa952ba7f163c4a11628f55a4df523b3ef60405160405180910390a4809150509392505050565b600980549050600a5f8381526020019081526020015f2081905550600981908060018154018082558091505060019003905f5260205f20015f909190919091505550565b5f611ecf8361099f565b90505f60085f8481526020019081526020015f205490505f60075f8673ffffffffffffffffffffffffffffffffffffffff1673ffffffffffffffffffffffffffffffffffffffff1681526020019081526020015f209050828214611f6e575f815f8581526020019081526020015f2054905080825f8581526020019081526020015f20819055508260085f8381526020019081526020015f2081905550505b60085f8581526020019081526020015f205f9055805f8481526020019081526020015f205f90555050505050565b5f6001600980549050611faf9190612f50565b90505f600a5f8481526020019081526020015f205490505f60098381548110611fdb57611fda612afa565b5b905f5260205f20015490508060098381548110611ffb57611ffa612afa565b5b905f5260205f20018190555081600a5f8381526020019081526020015f2081905550600a5f8581526020019081526020015f205f9055600980548061204357612042612f83565b5b600190038181905f5260205f20015f9055905550505050565b5f60016120688461099f565b6120729190612f50565b90508160075f8573ffffffffffffffffffffffffffffffffffffffff1673ffffffffffffffffffffffffffffffffffffffff1681526020019081526020015f205f8381526020019081526020015f20819055508060085f8481526020019081526020015f2081905550505050565b6120ea838361222f565b6120fe6120f5610eb2565b5f8585856113b5565b505050565b5f7f01ffc9a7000000000000000000000000000000000000000000000000000000007bffffffffffffffffffffffffffffffffffffffffffffffffffffffff1916827bffffffffffffffffffffffffffffffffffffffffffffffffffffffff1916149050919050565b612177838383612322565b61222a575f73ffffffffffffffffffffffffffffffffffffffff168373ffffffffffffffffffffffffffffffffffffffff16036121eb57806040517f7e2732890000000000000000000000000000000000000000000000000000000081526004016121e29190612663565b60405180910390fd5b81816040517f177e802f000000000000000000000000000000000000000000000000000000008152600401612221929190612ad3565b60405180910390fd5b505050565b5f73ffffffffffffffffffffffffffffffffffffffff168273ffffffffffffffffffffffffffffffffffffffff160361229f575f6040517f64a0ae9200000000000000000000000000000000000000000000000000000000815260040161229691906125d3565b60405180910390fd5b5f6122ab83835f610ecb565b90505f73ffffffffffffffffffffffffffffffffffffffff168173ffffffffffffffffffffffffffffffffffffffff161461231d575f6040517f73c6ac6e00000000000000000000000000000000000000000000000000000000815260040161231491906125d3565b60405180910390fd5b505050565b5f5f73ffffffffffffffffffffffffffffffffffffffff168373ffffffffffffffffffffffffffffffffffffffff16141580156123d957508273ffffffffffffffffffffffffffffffffffffffff168473ffffffffffffffffffffffffffffffffffffffff16148061239a57506123998484610cec565b5b806123d857508273ffffffffffffffffffffffffffffffffffffffff166123c083610e79565b73ffffffffffffffffffffffffffffffffffffffff16145b5b90509392505050565b5f604051905090565b5f5ffd5b5f5ffd5b5f7fffffffff0000000000000000000000000000000000000000000000000000000082169050919050565b612427816123f3565b8114612431575f5ffd5b50565b5f813590506124428161241e565b92915050565b5f6020828403121561245d5761245c6123eb565b5b5f61246a84828501612434565b91505092915050565b5f8115159050919050565b61248781612473565b82525050565b5f6020820190506124a05f83018461247e565b92915050565b5f81519050919050565b5f82825260208201905092915050565b8281835e5f83830152505050565b5f601f19601f8301169050919050565b5f6124e8826124a6565b6124f281856124b0565b93506125028185602086016124c0565b61250b816124ce565b840191505092915050565b5f6020820190508181035f83015261252e81846124de565b905092915050565b5f819050919050565b61254881612536565b8114612552575f5ffd5b50565b5f813590506125638161253f565b92915050565b5f6020828403121561257e5761257d6123eb565b5b5f61258b84828501612555565b91505092915050565b5f73ffffffffffffffffffffffffffffffffffffffff82169050919050565b5f6125bd82612594565b9050919050565b6125cd816125b3565b82525050565b5f6020820190506125e65f8301846125c4565b92915050565b6125f5816125b3565b81146125ff575f5ffd5b50565b5f81359050612610816125ec565b92915050565b5f5f6040838503121561262c5761262b6123eb565b5b5f61263985828601612602565b925050602061264a85828601612555565b9150509250929050565b61265d81612536565b82525050565b5f6020820190506126765f830184612654565b92915050565b5f5f5f60608486031215612693576126926123eb565b5b5f6126a086828701612602565b93505060206126b186828701612602565b92505060406126c286828701612555565b9150509250925092565b5f819050919050565b6126de816126cc565b81146126e8575f5ffd5b50565b5f813590506126f9816126d5565b92915050565b5f60208284031215612714576127136123eb565b5b5f612721848285016126eb565b91505092915050565b612733816126cc565b82525050565b5f60208201905061274c5f83018461272a565b92915050565b5f5f60408385031215612768576127676123eb565b5b5f612775858286016126eb565b925050602061278685828601612602565b9150509250929050565b5f602082840312156127a5576127a46123eb565b5b5f6127b284828501612602565b91505092915050565b6127c481612473565b81146127ce575f5ffd5b50565b5f813590506127df816127bb565b92915050565b5f5f604083850312156127fb576127fa6123eb565b5b5f61280885828601612602565b9250506020612819858286016127d1565b9150509250929050565b5f60ff82169050919050565b61283881612823565b82525050565b5f6020820190506128515f83018461282f565b92915050565b5f5ffd5b5f5ffd5b7f4e487b71000000000000000000000000000000000000000000000000000000005f52604160045260245ffd5b612895826124ce565b810181811067ffffffffffffffff821117156128b4576128b361285f565b5b80604052505050565b5f6128c66123e2565b90506128d2828261288c565b919050565b5f67ffffffffffffffff8211156128f1576128f061285f565b5b6128fa826124ce565b9050602081019050919050565b828183375f83830152505050565b5f612927612922846128d7565b6128bd565b9050828152602081018484840111156129435761294261285b565b5b61294e848285612907565b509392505050565b5f82601f83011261296a57612969612857565b5b813561297a848260208601612915565b91505092915050565b5f5f5f5f6080858703121561299b5761299a6123eb565b5b5f6129a887828801612602565b94505060206129b987828801612602565b93505060406129ca87828801612555565b925050606085013567ffffffffffffffff8111156129eb576129ea6123ef565b5b6129f787828801612956565b91505092959194509250565b5f5f60408385031215612a1957612a186123eb565b5b5f612a2685828601612602565b9250506020612a3785828601612602565b9150509250929050565b7f4e487b71000000000000000000000000000000000000000000000000000000005f52602260045260245ffd5b5f6002820490506001821680612a8557607f821691505b602082108103612a9857612a97612a41565b5b50919050565b5f606082019050612ab15f8301866125c4565b612abe6020830185612654565b612acb60408301846125c4565b949350505050565b5f604082019050612ae65f8301856125c4565b612af36020830184612654565b9392505050565b7f4e487b71000000000000000000000000000000000000000000000000000000005f52603260045260245ffd5b5f81905092915050565b5f612b3b826124a6565b612b458185612b27565b9350612b558185602086016124c0565b80840191505092915050565b7f2e6a736f6e0000000000000000000000000000000000000000000000000000005f82015250565b5f612b95600583612b27565b9150612ba082612b61565b600582019050919050565b5f612bb68285612b31565b9150612bc28284612b31565b9150612bcd82612b89565b91508190509392505050565b7f496e76616c696420696d6167652072616e6765000000000000000000000000005f82015250565b5f612c0d6013836124b0565b9150612c1882612bd9565b602082019050919050565b5f6020820190508181035f830152612c3a81612c01565b9050919050565b7f4e487b71000000000000000000000000000000000000000000000000000000005f52601160045260245ffd5b5f612c7882612536565b91507fffffffffffffffffffffffffffffffffffffffffffffffffffffffffffffffff8203612caa57612ca9612c41565b5b600182019050919050565b5f612cbf82612823565b9150612cca83612823565b9250828203905060ff811115612ce357612ce2612c41565b5b92915050565b5f612cf382612823565b9150612cfe83612823565b9250828201905060ff811115612d1757612d16612c41565b5b92915050565b5f819050919050565b612d37612d3282612536565b612d1d565b82525050565b5f8160601b9050919050565b5f612d5382612d3d565b9050919050565b5f612d6482612d49565b9050919050565b612d7c612d77826125b3565b612d5a565b82525050565b5f612d8d8286612d26565b602082019150612d9d8285612d6b565b601482019150612dad8284612d26565b602082019150819050949350505050565b7f4e487b71000000000000000000000000000000000000000000000000000000005f52601260045260245ffd5b5f612df582612536565b9150612e0083612536565b925082612e1057612e0f612dbe565b5b828206905092915050565b5f612e2582612536565b9150612e3083612536565b9250828201905080821115612e4857612e47612c41565b5b92915050565b5f81519050919050565b5f82825260208201905092915050565b5f612e7282612e4e565b612e7c8185612e58565b9350612e8c8185602086016124c0565b612e95816124ce565b840191505092915050565b5f608082019050612eb35f8301876125c4565b612ec060208301866125c4565b612ecd6040830185612654565b8181036060830152612edf8184612e68565b905095945050505050565b5f81519050612ef88161241e565b92915050565b5f60208284031215612f1357612f126123eb565b5b5f612f2084828501612eea565b91505092915050565b5f604082019050612f3c5f8301856125c4565b612f49602083018461272a565b9392505050565b5f612f5a82612536565b9150612f6583612536565b9250828203905081811115612f7d57612f7c612c41565b5b92915050565b7f4e487b71000000000000000000000000000000000000000000000000000000005f52603160045260245ffdfe697066733a2f2f516d5a5333346b74473632366133477175374343335169486552745657517a445374374c73444748755a6f4a7a772fa26469706673582212207698022ced51360465c0098c22641776f3f946e02fece0f1cfad2c1f2ee11be464736f6c634300081c0033","linkReferences":{}},"methodIdentifiers":{"DEFAULT_ADMIN_ROLE()":"a217fddf","MINTER_ROLE()":"d5391393","approve(address,uint256)":"095ea7b3","balanceOf(address)":"70a08231","burn(uint256)":"42966c68","getApproved(uint256)":"081812fc","getRoleAdmin(bytes32)":"248a9ca3","grantRole(bytes32,address)":"2f2ff15d","hasRole(bytes32,address)":"91d14854","imageNumberOf(uint256)":"b469b506","isApprovedForAll(address,address)":"e985e9c5","name()":"06fdde03","ownerOf(uint256)":"6352211e","renounceRole(bytes32,address)":"36568abe","revokeRole(bytes32,address)":"d547741f","safeMintLevel1(address)":"8d090547","safeMintLevel2(address)":"d8a75723","safeTransferFrom(address,address,uint256)":"42842e0e","safeTransferFrom(address,address,uint256,bytes)":"b88d4fde","setApprovalForAll(address,bool)":"a22cb465","supportsInterface(bytes4)":"01ffc9a7","symbol()":"95d89b41","tokenByIndex(uint256)":"4f6ccce7","tokenOfOwnerByIndex(address,uint256)":"2f745c59","tokenURI(uint256)":"c87b56dd","totalSupply()":"18160ddd","transferFrom(address,address,uint256)":"23b872dd"},"id":0}