{"abi":[{"type":"constructor","inputs":[{"name":"defaultAdmin","type":"address","internalType":"address"},{"name":"minter","type":"address","internalType":"address"}],"stateMutability":"nonpayable"},{"type":"function","name":"DEFAULT_ADMIN_ROLE","inputs":[],"outputs":[{"name":"","type":"bytes32","internalType":"bytes32"}],"stateMutability":"view"},{"type":"function","name":"LEVEL_ONE_IMAGE_NUMBER","inputs":[],"outputs":[{"name":"","type":"uint8","internalType":"uint8"}],"stateMutability":"view"},{"type":"function","name":"MAX_IMAGES","inputs":[],"outputs":[{"name":"","type":"uint8","internalType":"uint8"}],"stateMutability":"view"},{"type":"function","name":"MINTER_ROLE","inputs":[],"outputs":[{"name":"","type":"bytes32","internalType":"bytes32"}],"stateMutability":"view"},{"type":"function","name":"approve","inputs":[{"name":"to","type":"address","internalType":"address"},{"name":"tokenId","type":"uint256","internalType":"uint256"}],"outputs":[],"stateMutability":"nonpayable"},{"type":"function","name":"balanceOf","inputs":[{"name":"owner","type":"address","internalType":"address"}],"outputs":[{"name":"","type":"uint256","internalType":"uint256"}],"stateMutability":"view"},{"type":"function","name":"burn","inputs":[{"name":"tokenId","type":"uint256","internalType":"uint256"}],"outputs":[],"stateMutability":"nonpayable"},{"type":"function","name":"getApproved","inputs":[{"name":"tokenId","type":"uint256","internalType":"uint256"}],"outputs":[{"name":"","type":"address","internalType":"address"}],"stateMutability":"view"},{"type":"function","name":"getRoleAdmin","inputs":[{"name":"role","type":"bytes32","internalType":"bytes32"}],"outputs":[{"name":"","type":"bytes32","internalType":"bytes32"}],"stateMutability":"view"},{"type":"function","name":"grantRole","inputs":[{"name":"role","type":"bytes32","internalType":"bytes32"},{"name":"account","type":"address","internalType":"address"}],"outputs":[],"stateMutability":"nonpayable"},{"type":"function","name":"hasRole","inputs":[{"name":"role","type":"bytes32","internalType":"bytes32"},{"name":"account","type":"address","internalType":"address"}],"outputs":[{"name":"","type":"bool","internalType":"bool"}],"stateMutability":"view"},{"type":"function","name":"imageNumberOf","inputs":[{"name":"tokenId","type":"uint256","internalType":"uint256"}],"outputs":[{"name":"","type":"uint8","internalType":"uint8"}],"stateMutability":"view"},{"type":"function","name":"isApprovedForAll","inputs":[{"name":"owner","type":"address","internalType":"address"},{"name":"operator","type":"address","internalType":"address"}],"outputs":[{"name":"","type":"bool","internalType":"bool"}],"stateMutability":"view"},{"type":"function","name":"name","inputs":[],"outputs":[{"name":"","type":"string","internalType":"string"}],"stateMutability":"view"},{"type":"function","name":"ownerOf","inputs":[{"name":"tokenId","type":"uint256","internalType":"uint256"}],"outputs":[{"name":"","type":"address","internalType":"address"}],"stateMutability":"view"},{"type":"function","name":"renounceRole","inputs":[{"name":"role","type":"bytes32","internalType":"bytes32"},{"name":"callerConfirmation","type":"address","internalType":"address"}],"outputs":[],"stateMutability":"nonpayable"},{"type":"function","name":"revokeRole","inputs":[{"name":"role","type":"bytes32","internalType":"bytes32"},{"name":"account","type":"address","internalType":"address"}],"outputs":[],"stateMutability":"nonpayable"},{"type":"function","name":"safeMintLevel1","inputs":[{"name":"to","type":"address","internalType":"address"}],"outputs":[{"name":"","type":"uint256","internalType":"uint256"}],"stateMutability":"nonpayable"},{"type":"function","name":"safeMintLevel2","inputs":[{"name":"to","type":"address","internalType":"address"}],"outputs":[{"name":"","type":"uint256","internalType":"uint256"}],"stateMutability":"nonpayable"},{"type":"function","name":"safeTransferFrom","inputs":[{"name":"from","type":"address","internalType":"address"},{"name":"to","type":"address","internalType":"address"},{"name":"tokenId","type":"uint256","internalType":"uint256"}],"outputs":[],"stateMutability":"nonpayable"},{"type":"function","name":"safeTransferFrom","inputs":[{"name":"from","type":"address","internalType":"address"},{"name":"to","type":"address","internalType":"address"},{"name":"tokenId","type":"uint256","internalType":"uint256"},{"name":"data","type":"bytes","internalType":"bytes"}],"outputs":[],"stateMutability":"nonpayable"},{"type":"function","name":"setApprovalForAll","inputs":[{"name":"operator","type":"address","internalType":"address"},{"name":"approved","type":"bool","internalType":"bool"}],"outputs":[],"stateMutability":"nonpayable"},{"type":"function","name":"supportsInterface","inputs":[{"name":"interfaceId","type":"bytes4","internalType":"bytes4"}],"outputs":[{"name":"","type":"bool","internalType":"bool"}],"stateMutability":"view"},{"type":"function","name":"symbol","inputs":[],"outputs":[{"name":"","type":"string","internalType":"string"}],"stateMutability":"view"},{"type":"function","name":"tokenByIndex","inputs":[{"name":"index","type":"uint256","internalType":"uint256"}],"outputs":[{"name":"","type":"uint256","internalType":"uint256"}],"stateMutability":"view"},{"type":"function","name":"tokenOfOwnerByIndex","inputs":[{"name":"owner","type":"address","internalType":"address"},{"name":"index","type":"uint256","internalType":"uint256"}],"outputs":[{"name":"","type":"uint256","internalType":"uint256"}],"stateMutability":"view"},{"type":"function","name":"tokenURI","inputs":[{"name":"tokenId","type":"uint256","internalType":"uint256"}],"outputs":[{"name":"","type":"string","internalType":"string"}],"stateMutability":"view"},{"type":"function","name":"totalSupply","inputs":[],"outputs":[{"name":"","type":"uint256","internalType":"uint256"}],"stateMutability":"view"},{"type":"function","name":"transferFrom","inputs":[{"name":"from","type":"address","internalType":"address"},{"name":"to","type":"address","internalType":"address"},{"name":"tokenId","type":"uint256","internalType":"uint256"}],"outputs":[],"stateMutability":"nonpayable"},{"type":"event","name":"Approval","inputs":[{"name":"owner","type":"address","indexed":true,"internalType":"address"},{"name":"approved","type":"address","indexed":true,"internalType":"address"},{"name":"tokenId","type":"uint256","indexed":true,"internalType":"uint256"}],"anonymous":false},{"type":"event","name":"ApprovalForAll","inputs":[{"name":"owner","type":"address","indexed":true,"internalType":"address"},{"name":"operator","type":"address","indexed":true,"internalType":"address"},{"name":"approved","type":"bool","indexed":false,"internalType":"bool"}],"anonymous":false},{"type":"event","name":"RoleAdminChanged","inputs":[{"name":"role","type":"bytes32","indexed":true,"internalType":"bytes32"},{"name":"previousAdminRole","type":"bytes32","indexed":true,"internalType":"bytes32"},{"name":"newAdminRole","type":"bytes32","indexed":true,"internalType":"bytes32"}],"anonymous":false},{"type":"event","name":"RoleGranted","inputs":[{"name":"role","type":"bytes32","indexed":true,"internalType":"bytes32"},{"name":"account","type":"address","indexed":true,"internalType":"address"},{"name":"sender","type":"address","indexed":true,"internalType":"address"}],"anonymous":false},{"type":"event","name":"RoleRevoked","inputs":[{"name":"role","type":"bytes32","indexed":true,"internalType":"bytes32"},{"name":"account","type":"address","indexed":true,"internalType":"address"},{"name":"sender","type":"address","indexed":true,"internalType":"address"}],"anonymous":false},{"type":"event","name":"Transfer","inputs":[{"name":"from","type":"address","indexed":true,"internalType":"address"},{"name":"to","type":"address","indexed":true,"internalType":"address"},{"name":"tokenId","type":"uint256","indexed":true,"internalType":"uint256"}],"anonymous":false},{"type":"error","name":"AccessControlBadConfirmation","inputs":[]},{"type":"error","name":"AccessControlUnauthorizedAccount","inputs":[{"name":"account","type":"address","internalType":"address"},{"name":"neededRole","type":"bytes32","internalType":"bytes32"}]},{"type":"error","name":"ERC721EnumerableForbiddenBatchMint","inputs":[]},{"type":"error","name":"ERC721IncorrectOwner","inputs":[{"name":"sender","type":"address","internalType":"address"},{"name":"tokenId","type":"uint256","internalType":"uint256"},{"name":"owner","type":"address","internalType":"address"}]},{"type":"error","name":"ERC721InsufficientApproval","inputs":[{"name":"operator","type":"address","internalType":"address"},{"name":"tokenId","type":"uint256","internalType":"uint256"}]},{"type":"error","name":"ERC721InvalidApprover","inputs":[{"name":"approver","type":"address","internalType":"address"}]},{"type":"error","name":"ERC721InvalidOperator","inputs":[{"name":"operator","type":"address","internalType":"address"}]},{"type":"error","name":"ERC721InvalidOwner","inputs":[{"name":"owner","type":"address","internalType":"address"}]},{"type":"error","name":"ERC721InvalidReceiver","inputs":[{"name":"receiver","type":"address","internalType":"address"}]},{"type":"error","name":"ERC721InvalidSender","inputs":[{"name":"sender","type":"address","internalType":"address"}]},{"type":"error","name":"ERC721NonexistentToken","inputs":[{"name":"tokenId","type":"uint256","internalType":"uint256"}]},{"type":"error","name":"ERC721OutOfBoundsIndex","inputs":[{"name":"owner","type":"address","internalType":"address"},{"name":"index","type":"uint256","internalType":"uint256"}]},{"type":"error","name":"OctoChestDontExist","inputs":[]}],"bytecode":{"object":"0x608060405234801561000f575f5ffd5b506040516136b33803806136b3833981810160405281019061003191906102c8565b6040518060400160405280600981526020017f4f63746f436865737400000000000000000000000000000000000000000000008152506040518060400160405280600281526020017f4f43000000000000000000000000000000000000000000000000000000000000815250815f90816100ab9190610543565b5080600190816100bb9190610543565b5050506100d05f5f1b8361010960201b60201c565b506101017f9f2df0fed2c77648de5860a4cc508cd0818c85b8b8a1ab4ceeef8d981c8956a68261010960201b60201c565b505050610612565b5f61011a83836101ff60201b60201c565b6101f557600160065f8581526020019081526020015f205f015f8473ffffffffffffffffffffffffffffffffffffffff1673ffffffffffffffffffffffffffffffffffffffff1681526020019081526020015f205f6101000a81548160ff02191690831515021790555061019261026360201b60201c565b73ffffffffffffffffffffffffffffffffffffffff168273ffffffffffffffffffffffffffffffffffffffff16847f2f8788117e7eff1d82e926ec794901d17c78024a50270940304540a733656f0d60405160405180910390a4600190506101f9565b5f90505b92915050565b5f60065f8481526020019081526020015f205f015f8373ffffffffffffffffffffffffffffffffffffffff1673ffffffffffffffffffffffffffffffffffffffff1681526020019081526020015f205f9054906101000a900460ff16905092915050565b5f33905090565b5f5ffd5b5f73ffffffffffffffffffffffffffffffffffffffff82169050919050565b5f6102978261026e565b9050919050565b6102a78161028d565b81146102b1575f5ffd5b50565b5f815190506102c28161029e565b92915050565b5f5f604083850312156102de576102dd61026a565b5b5f6102eb858286016102b4565b92505060206102fc858286016102b4565b9150509250929050565b5f81519050919050565b7f4e487b71000000000000000000000000000000000000000000000000000000005f52604160045260245ffd5b7f4e487b71000000000000000000000000000000000000000000000000000000005f52602260045260245ffd5b5f600282049050600182168061038157607f821691505b6020821081036103945761039361033d565b5b50919050565b5f819050815f5260205f209050919050565b5f6020601f8301049050919050565b5f82821b905092915050565b5f600883026103f67fffffffffffffffffffffffffffffffffffffffffffffffffffffffffffffffff826103bb565b61040086836103bb565b95508019841693508086168417925050509392505050565b5f819050919050565b5f819050919050565b5f61044461043f61043a84610418565b610421565b610418565b9050919050565b5f819050919050565b61045d8361042a565b6104716104698261044b565b8484546103c7565b825550505050565b5f5f905090565b610488610479565b610493818484610454565b505050565b5b818110156104b6576104ab5f82610480565b600181019050610499565b5050565b601f8211156104fb576104cc8161039a565b6104d5846103ac565b810160208510156104e4578190505b6104f86104f0856103ac565b830182610498565b50505b505050565b5f82821c905092915050565b5f61051b5f1984600802610500565b1980831691505092915050565b5f610533838361050c565b9150826002028217905092915050565b61054c82610306565b67ffffffffffffffff81111561056557610564610310565b5b61056f825461036a565b61057a8282856104ba565b5f60209050601f8311600181146105ab575f8415610599578287015190505b6105a38582610528565b86555061060a565b601f1984166105b98661039a565b5f5b828110156105e0578489015182556001820191506020850194506020810190506105bb565b868310156105fd57848901516105f9601f89168261050c565b8355505b6001600288020188555050505b505050505050565b6130948061061f5f395ff3fe608060405234801561000f575f5ffd5b50600436106101cd575f3560e01c806370a0823111610102578063b469b506116100a0578063d547741f1161006f578063d547741f14610575578063d8a7572314610591578063e985e9c5146105c1578063f7af81a7146105f1576101cd565b8063b469b506146104db578063b88d4fde1461050b578063c87b56dd14610527578063d539139314610557576101cd565b806391d14854116100dc57806391d148541461045357806395d89b4114610483578063a217fddf146104a1578063a22cb465146104bf576101cd565b806370a08231146103d557806376bbe0c2146104055780638d09054714610423576101cd565b80632f2ff15d1161016f57806342842e0e1161014957806342842e0e1461033d57806342966c68146103595780634f6ccce7146103755780636352211e146103a5576101cd565b80632f2ff15d146102d55780632f745c59146102f157806336568abe14610321576101cd565b8063095ea7b3116101ab578063095ea7b31461024f57806318160ddd1461026b57806323b872dd14610289578063248a9ca3146102a5576101cd565b806301ffc9a7146101d157806306fdde0314610201578063081812fc1461021f575b5f5ffd5b6101eb60048036038101906101e691906124c0565b61060f565b6040516101f89190612505565b60405180910390f35b610209610620565b604051610216919061258e565b60405180910390f35b610239600480360381019061023491906125e1565b6106af565b604051610246919061264b565b60405180910390f35b6102696004803603810190610264919061268e565b6106ca565b005b6102736106e0565b60405161028091906126db565b60405180910390f35b6102a3600480360381019061029e91906126f4565b6106ec565b005b6102bf60048036038101906102ba9190612777565b6107eb565b6040516102cc91906127b1565b60405180910390f35b6102ef60048036038101906102ea91906127ca565b610808565b005b61030b6004803603810190610306919061268e565b61082a565b60405161031891906126db565b60405180910390f35b61033b600480360381019061033691906127ca565b6108ce565b005b610357600480360381019061035291906126f4565b610949565b005b610373600480360381019061036e91906125e1565b610968565b005b61038f600480360381019061038a91906125e1565b61097e565b60405161039c91906126db565b60405180910390f35b6103bf60048036038101906103ba91906125e1565b6109f0565b6040516103cc919061264b565b60405180910390f35b6103ef60048036038101906103ea9190612808565b610a01565b6040516103fc91906126db565b60405180910390f35b61040d610ab7565b60405161041a919061284e565b60405180910390f35b61043d60048036038101906104389190612808565b610abc565b60405161044a91906126db565b60405180910390f35b61046d600480360381019061046891906127ca565b610afc565b60405161047a9190612505565b60405180910390f35b61048b610b60565b604051610498919061258e565b60405180910390f35b6104a9610bf0565b6040516104b691906127b1565b60405180910390f35b6104d960048036038101906104d49190612891565b610bf6565b005b6104f560048036038101906104f091906125e1565b610c0c565b604051610502919061284e565b60405180910390f35b610525600480360381019061052091906129fb565b610c3b565b005b610541600480360381019061053c91906125e1565b610c60565b60405161054e919061258e565b60405180910390f35b61055f610ccd565b60405161056c91906127b1565b60405180910390f35b61058f600480360381019061058a91906127ca565b610cf1565b005b6105ab60048036038101906105a69190612808565b610d13565b6040516105b891906126db565b60405180910390f35b6105db60048036038101906105d69190612a7b565b610d5f565b6040516105e89190612505565b60405180910390f35b6105f9610ded565b604051610606919061284e565b60405180910390f35b5f61061982610df2565b9050919050565b60605f805461062e90612ae6565b80601f016020809104026020016040519081016040528092919081815260200182805461065a90612ae6565b80156106a55780601f1061067c576101008083540402835291602001916106a5565b820191905f5260205f20905b81548152906001019060200180831161068857829003601f168201915b5050505050905090565b5f6106b982610e6b565b506106c382610ef1565b9050919050565b6106dc82826106d7610f2a565b610f31565b5050565b5f600980549050905090565b5f73ffffffffffffffffffffffffffffffffffffffff168273ffffffffffffffffffffffffffffffffffffffff160361075c575f6040517f64a0ae92000000000000000000000000000000000000000000000000000000008152600401610753919061264b565b60405180910390fd5b5f61076f838361076a610f2a565b610f43565b90508373ffffffffffffffffffffffffffffffffffffffff168173ffffffffffffffffffffffffffffffffffffffff16146107e5578382826040517f64283d7b0000000000000000000000000000000000000000000000000000000081526004016107dc93929190612b16565b60405180910390fd5b50505050565b5f60065f8381526020019081526020015f20600101549050919050565b610811826107eb565b61081a81610f58565b6108248383610f6c565b50505050565b5f61083483610a01565b82106108795782826040517fa57d13dc000000000000000000000000000000000000000000000000000000008152600401610870929190612b4b565b60405180910390fd5b60075f8473ffffffffffffffffffffffffffffffffffffffff1673ffffffffffffffffffffffffffffffffffffffff1681526020019081526020015f205f8381526020019081526020015f2054905092915050565b6108d6610f2a565b73ffffffffffffffffffffffffffffffffffffffff168173ffffffffffffffffffffffffffffffffffffffff161461093a576040517f6697b23200000000000000000000000000000000000000000000000000000000815260040160405180910390fd5b6109448282611056565b505050565b61096383838360405180602001604052805f815250610c3b565b505050565b61097a5f82610975610f2a565b610f43565b5050565b5f6109876106e0565b82106109cc575f826040517fa57d13dc0000000000000000000000000000000000000000000000000000000081526004016109c3929190612b4b565b60405180910390fd5b600982815481106109e0576109df612b72565b5b905f5260205f2001549050919050565b5f6109fa82610e6b565b9050919050565b5f5f73ffffffffffffffffffffffffffffffffffffffff168273ffffffffffffffffffffffffffffffffffffffff1603610a72575f6040517f89c62b64000000000000000000000000000000000000000000000000000000008152600401610a69919061264b565b60405180910390fd5b60035f8373ffffffffffffffffffffffffffffffffffffffff1673ffffffffffffffffffffffffffffffffffffffff1681526020019081526020015f20549050919050565b601481565b5f7f9f2df0fed2c77648de5860a4cc508cd0818c85b8b8a1ab4ceeef8d981c8956a6610ae781610f58565b610af48360016005611140565b915050919050565b5f60065f8481526020019081526020015f205f015f8373ffffffffffffffffffffffffffffffffffffffff1673ffffffffffffffffffffffffffffffffffffffff1681526020019081526020015f205f9054906101000a900460ff16905092915050565b606060018054610b6f90612ae6565b80601f0160208091040260200160405190810160405280929190818152602001828054610b9b90612ae6565b8015610be65780601f10610bbd57610100808354040283529160200191610be6565b820191905f5260205f20905b815481529060010190602001808311610bc957829003601f168201915b5050505050905090565b5f5f1b81565b610c08610c01610f2a565b8383611254565b5050565b5f610c16826113bd565b600c5f8381526020019081526020015f205f9054906101000a900460ff169050919050565b610c468484846106ec565b610c5a610c51610f2a565b8585858561142d565b50505050565b6060610c6b826113bd565b5f600c5f8481526020019081526020015f205f9054906101000a900460ff1690505f610c998260ff166115d9565b9050610ca36116a3565b81604051602001610cb5929190612c23565b60405160208183030381529060405292505050919050565b7f9f2df0fed2c77648de5860a4cc508cd0818c85b8b8a1ab4ceeef8d981c8956a681565b610cfa826107eb565b610d0381610f58565b610d0d8383611056565b50505050565b5f7f9f2df0fed2c77648de5860a4cc508cd0818c85b8b8a1ab4ceeef8d981c8956a6610d3e81610f58565b610d578360016005610d509190612c7e565b6014611140565b915050919050565b5f60055f8473ffffffffffffffffffffffffffffffffffffffff1673ffffffffffffffffffffffffffffffffffffffff1681526020019081526020015f205f8373ffffffffffffffffffffffffffffffffffffffff1673ffffffffffffffffffffffffffffffffffffffff1681526020019081526020015f205f9054906101000a900460ff16905092915050565b600581565b5f7f780e9d63000000000000000000000000000000000000000000000000000000007bffffffffffffffffffffffffffffffffffffffffffffffffffffffff1916827bffffffffffffffffffffffffffffffffffffffffffffffffffffffff19161480610e645750610e63826116c3565b5b9050919050565b5f5f610e768361173c565b90505f73ffffffffffffffffffffffffffffffffffffffff168173ffffffffffffffffffffffffffffffffffffffff1603610ee857826040517f7e273289000000000000000000000000000000000000000000000000000000008152600401610edf91906126db565b60405180910390fd5b80915050919050565b5f60045f8381526020019081526020015f205f9054906101000a900473ffffffffffffffffffffffffffffffffffffffff169050919050565b5f33905090565b610f3e8383836001611775565b505050565b5f610f4f848484611934565b90509392505050565b610f6981610f64610f2a565b611a4e565b50565b5f610f778383610afc565b61104c57600160065f8581526020019081526020015f205f015f8473ffffffffffffffffffffffffffffffffffffffff1673ffffffffffffffffffffffffffffffffffffffff1681526020019081526020015f205f6101000a81548160ff021916908315150217905550610fe9610f2a565b73ffffffffffffffffffffffffffffffffffffffff168273ffffffffffffffffffffffffffffffffffffffff16847f2f8788117e7eff1d82e926ec794901d17c78024a50270940304540a733656f0d60405160405180910390a460019050611050565b5f90505b92915050565b5f6110618383610afc565b15611136575f60065f8581526020019081526020015f205f015f8473ffffffffffffffffffffffffffffffffffffffff1673ffffffffffffffffffffffffffffffffffffffff1681526020019081526020015f205f6101000a81548160ff0219169083151502179055506110d3610f2a565b73ffffffffffffffffffffffffffffffffffffffff168273ffffffffffffffffffffffffffffffffffffffff16847ff6391f5c32d9c69d2a47ea670b442974b53935d1edc7fd64eb21e047a839171b60405160405180910390a46001905061113a565b5f90505b92915050565b5f8160ff168360ff1610801561115a575060148260ff1611155b611199576040517f08c379a000000000000000000000000000000000000000000000000000000000815260040161119090612cfc565b60405180910390fd5b5f600b5f8154809291906111ac90612d1a565b9190505590506111bc8582611a9f565b5f8460ff16600186866111cf9190612d61565b6111d99190612c7e565b60ff164288856040516020016111f193929190612dfa565b604051602081830303815290604052805190602001205f1c6112139190612e63565b61121d9190612e93565b905080600c5f8481526020019081526020015f205f6101000a81548160ff021916908360ff16021790555081925050509392505050565b5f73ffffffffffffffffffffffffffffffffffffffff168273ffffffffffffffffffffffffffffffffffffffff16036112c457816040517f5b08ba180000000000000000000000000000000000000000000000000000000081526004016112bb919061264b565b60405180910390fd5b8060055f8573ffffffffffffffffffffffffffffffffffffffff1673ffffffffffffffffffffffffffffffffffffffff1681526020019081526020015f205f8473ffffffffffffffffffffffffffffffffffffffff1673ffffffffffffffffffffffffffffffffffffffff1681526020019081526020015f205f6101000a81548160ff0219169083151502179055508173ffffffffffffffffffffffffffffffffffffffff168373ffffffffffffffffffffffffffffffffffffffff167f17307eab39ab6107e8899845ad3d59bd9653f200f220920489ca2b5937696c31836040516113b09190612505565b60405180910390a3505050565b5f73ffffffffffffffffffffffffffffffffffffffff166113dd8261173c565b73ffffffffffffffffffffffffffffffffffffffff160361142a576040517fbc012f6800000000000000000000000000000000000000000000000000000000815260040160405180910390fd5b50565b5f8373ffffffffffffffffffffffffffffffffffffffff163b11156115d2578273ffffffffffffffffffffffffffffffffffffffff1663150b7a02868685856040518563ffffffff1660e01b815260040161148b9493929190612f18565b6020604051808303815f875af19250505080156114c657506040513d601f19601f820116820180604052508101906114c39190612f76565b60015b611547573d805f81146114f4576040519150601f19603f3d011682016040523d82523d5f602084013e6114f9565b606091505b505f81510361153f57836040517f64a0ae92000000000000000000000000000000000000000000000000000000008152600401611536919061264b565b60405180910390fd5b805181602001fd5b63150b7a0260e01b7bffffffffffffffffffffffffffffffffffffffffffffffffffffffff1916817bffffffffffffffffffffffffffffffffffffffffffffffffffffffff1916146115d057836040517f64a0ae920000000000000000000000000000000000000000000000000000000081526004016115c7919061264b565b60405180910390fd5b505b5050505050565b60605f60016115e784611abc565b0190505f8167ffffffffffffffff811115611605576116046128d7565b5b6040519080825280601f01601f1916602001820160405280156116375781602001600182028036833780820191505090505b5090505f82602001820190505b600115611698578080600190039150507f3031323334353637383961626364656600000000000000000000000000000000600a86061a8153600a858161168d5761168c612e36565b5b0494505f8503611644575b819350505050919050565b606060405180606001604052806036815260200161302960369139905090565b5f7f7965db0b000000000000000000000000000000000000000000000000000000007bffffffffffffffffffffffffffffffffffffffffffffffffffffffff1916827bffffffffffffffffffffffffffffffffffffffffffffffffffffffff19161480611735575061173482611c0d565b5b9050919050565b5f60025f8381526020019081526020015f205f9054906101000a900473ffffffffffffffffffffffffffffffffffffffff169050919050565b80806117ad57505f73ffffffffffffffffffffffffffffffffffffffff168273ffffffffffffffffffffffffffffffffffffffff1614155b156118df575f6117bc84610e6b565b90505f73ffffffffffffffffffffffffffffffffffffffff168373ffffffffffffffffffffffffffffffffffffffff161415801561182657508273ffffffffffffffffffffffffffffffffffffffff168173ffffffffffffffffffffffffffffffffffffffff1614155b801561183957506118378184610d5f565b155b1561187b57826040517fa9fbf51f000000000000000000000000000000000000000000000000000000008152600401611872919061264b565b60405180910390fd5b81156118dd57838573ffffffffffffffffffffffffffffffffffffffff168273ffffffffffffffffffffffffffffffffffffffff167f8c5be1e5ebec7d5bd14f71427d1e84f3dd0314c0f7b2291e5b200ac8c7c3b92560405160405180910390a45b505b8360045f8581526020019081526020015f205f6101000a81548173ffffffffffffffffffffffffffffffffffffffff021916908373ffffffffffffffffffffffffffffffffffffffff16021790555050505050565b5f5f611941858585611cee565b90505f73ffffffffffffffffffffffffffffffffffffffff168173ffffffffffffffffffffffffffffffffffffffff16036119845761197f84611ef9565b6119c3565b8473ffffffffffffffffffffffffffffffffffffffff168173ffffffffffffffffffffffffffffffffffffffff16146119c2576119c18185611f3d565b5b5b5f73ffffffffffffffffffffffffffffffffffffffff168573ffffffffffffffffffffffffffffffffffffffff1603611a04576119ff84612014565b611a43565b8473ffffffffffffffffffffffffffffffffffffffff168173ffffffffffffffffffffffffffffffffffffffff1614611a4257611a4185856120d4565b5b5b809150509392505050565b611a588282610afc565b611a9b5780826040517fe2517d3f000000000000000000000000000000000000000000000000000000008152600401611a92929190612fa1565b60405180910390fd5b5050565b611ab8828260405180602001604052805f815250612158565b5050565b5f5f5f90507a184f03e93ff9f4daa797ed6e38ed64bf6a1f0100000000000000008310611b18577a184f03e93ff9f4daa797ed6e38ed64bf6a1f0100000000000000008381611b0e57611b0d612e36565b5b0492506040810190505b6d04ee2d6d415b85acef81000000008310611b55576d04ee2d6d415b85acef81000000008381611b4b57611b4a612e36565b5b0492506020810190505b662386f26fc100008310611b8457662386f26fc100008381611b7a57611b79612e36565b5b0492506010810190505b6305f5e1008310611bad576305f5e1008381611ba357611ba2612e36565b5b0492506008810190505b6127108310611bd2576127108381611bc857611bc7612e36565b5b0492506004810190505b60648310611bf55760648381611beb57611bea612e36565b5b0492506002810190505b600a8310611c04576001810190505b80915050919050565b5f7f80ac58cd000000000000000000000000000000000000000000000000000000007bffffffffffffffffffffffffffffffffffffffffffffffffffffffff1916827bffffffffffffffffffffffffffffffffffffffffffffffffffffffff19161480611cd757507f5b5e139f000000000000000000000000000000000000000000000000000000007bffffffffffffffffffffffffffffffffffffffffffffffffffffffff1916827bffffffffffffffffffffffffffffffffffffffffffffffffffffffff1916145b80611ce75750611ce68261217b565b5b9050919050565b5f5f611cf98461173c565b90505f73ffffffffffffffffffffffffffffffffffffffff168373ffffffffffffffffffffffffffffffffffffffff1614611d3a57611d398184866121e4565b5b5f73ffffffffffffffffffffffffffffffffffffffff168173ffffffffffffffffffffffffffffffffffffffff1614611dc557611d795f855f5f611775565b600160035f8373ffffffffffffffffffffffffffffffffffffffff1673ffffffffffffffffffffffffffffffffffffffff1681526020019081526020015f205f82825403925050819055505b5f73ffffffffffffffffffffffffffffffffffffffff168573ffffffffffffffffffffffffffffffffffffffff1614611e4457600160035f8773ffffffffffffffffffffffffffffffffffffffff1673ffffffffffffffffffffffffffffffffffffffff1681526020019081526020015f205f82825401925050819055505b8460025f8681526020019081526020015f205f6101000a81548173ffffffffffffffffffffffffffffffffffffffff021916908373ffffffffffffffffffffffffffffffffffffffff160217905550838573ffffffffffffffffffffffffffffffffffffffff168273ffffffffffffffffffffffffffffffffffffffff167fddf252ad1be2c89b69c2b068fc378daa952ba7f163c4a11628f55a4df523b3ef60405160405180910390a4809150509392505050565b600980549050600a5f8381526020019081526020015f2081905550600981908060018154018082558091505060019003905f5260205f20015f909190919091505550565b5f611f4783610a01565b90505f60085f8481526020019081526020015f205490505f60075f8673ffffffffffffffffffffffffffffffffffffffff1673ffffffffffffffffffffffffffffffffffffffff1681526020019081526020015f209050828214611fe6575f815f8581526020019081526020015f2054905080825f8581526020019081526020015f20819055508260085f8381526020019081526020015f2081905550505b60085f8581526020019081526020015f205f9055805f8481526020019081526020015f205f90555050505050565b5f60016009805490506120279190612fc8565b90505f600a5f8481526020019081526020015f205490505f6009838154811061205357612052612b72565b5b905f5260205f2001549050806009838154811061207357612072612b72565b5b905f5260205f20018190555081600a5f8381526020019081526020015f2081905550600a5f8581526020019081526020015f205f905560098054806120bb576120ba612ffb565b5b600190038181905f5260205f20015f9055905550505050565b5f60016120e084610a01565b6120ea9190612fc8565b90508160075f8573ffffffffffffffffffffffffffffffffffffffff1673ffffffffffffffffffffffffffffffffffffffff1681526020019081526020015f205f8381526020019081526020015f20819055508060085f8481526020019081526020015f2081905550505050565b61216283836122a7565b61217661216d610f2a565b5f85858561142d565b505050565b5f7f01ffc9a7000000000000000000000000000000000000000000000000000000007bffffffffffffffffffffffffffffffffffffffffffffffffffffffff1916827bffffffffffffffffffffffffffffffffffffffffffffffffffffffff1916149050919050565b6121ef83838361239a565b6122a2575f73ffffffffffffffffffffffffffffffffffffffff168373ffffffffffffffffffffffffffffffffffffffff160361226357806040517f7e27328900000000000000000000000000000000000000000000000000000000815260040161225a91906126db565b60405180910390fd5b81816040517f177e802f000000000000000000000000000000000000000000000000000000008152600401612299929190612b4b565b60405180910390fd5b505050565b5f73ffffffffffffffffffffffffffffffffffffffff168273ffffffffffffffffffffffffffffffffffffffff1603612317575f6040517f64a0ae9200000000000000000000000000000000000000000000000000000000815260040161230e919061264b565b60405180910390fd5b5f61232383835f610f43565b90505f73ffffffffffffffffffffffffffffffffffffffff168173ffffffffffffffffffffffffffffffffffffffff1614612395575f6040517f73c6ac6e00000000000000000000000000000000000000000000000000000000815260040161238c919061264b565b60405180910390fd5b505050565b5f5f73ffffffffffffffffffffffffffffffffffffffff168373ffffffffffffffffffffffffffffffffffffffff161415801561245157508273ffffffffffffffffffffffffffffffffffffffff168473ffffffffffffffffffffffffffffffffffffffff16148061241257506124118484610d5f565b5b8061245057508273ffffffffffffffffffffffffffffffffffffffff1661243883610ef1565b73ffffffffffffffffffffffffffffffffffffffff16145b5b90509392505050565b5f604051905090565b5f5ffd5b5f5ffd5b5f7fffffffff0000000000000000000000000000000000000000000000000000000082169050919050565b61249f8161246b565b81146124a9575f5ffd5b50565b5f813590506124ba81612496565b92915050565b5f602082840312156124d5576124d4612463565b5b5f6124e2848285016124ac565b91505092915050565b5f8115159050919050565b6124ff816124eb565b82525050565b5f6020820190506125185f8301846124f6565b92915050565b5f81519050919050565b5f82825260208201905092915050565b8281835e5f83830152505050565b5f601f19601f8301169050919050565b5f6125608261251e565b61256a8185612528565b935061257a818560208601612538565b61258381612546565b840191505092915050565b5f6020820190508181035f8301526125a68184612556565b905092915050565b5f819050919050565b6125c0816125ae565b81146125ca575f5ffd5b50565b5f813590506125db816125b7565b92915050565b5f602082840312156125f6576125f5612463565b5b5f612603848285016125cd565b91505092915050565b5f73ffffffffffffffffffffffffffffffffffffffff82169050919050565b5f6126358261260c565b9050919050565b6126458161262b565b82525050565b5f60208201905061265e5f83018461263c565b92915050565b61266d8161262b565b8114612677575f5ffd5b50565b5f8135905061268881612664565b92915050565b5f5f604083850312156126a4576126a3612463565b5b5f6126b18582860161267a565b92505060206126c2858286016125cd565b9150509250929050565b6126d5816125ae565b82525050565b5f6020820190506126ee5f8301846126cc565b92915050565b5f5f5f6060848603121561270b5761270a612463565b5b5f6127188682870161267a565b93505060206127298682870161267a565b925050604061273a868287016125cd565b9150509250925092565b5f819050919050565b61275681612744565b8114612760575f5ffd5b50565b5f813590506127718161274d565b92915050565b5f6020828403121561278c5761278b612463565b5b5f61279984828501612763565b91505092915050565b6127ab81612744565b82525050565b5f6020820190506127c45f8301846127a2565b92915050565b5f5f604083850312156127e0576127df612463565b5b5f6127ed85828601612763565b92505060206127fe8582860161267a565b9150509250929050565b5f6020828403121561281d5761281c612463565b5b5f61282a8482850161267a565b91505092915050565b5f60ff82169050919050565b61284881612833565b82525050565b5f6020820190506128615f83018461283f565b92915050565b612870816124eb565b811461287a575f5ffd5b50565b5f8135905061288b81612867565b92915050565b5f5f604083850312156128a7576128a6612463565b5b5f6128b48582860161267a565b92505060206128c58582860161287d565b9150509250929050565b5f5ffd5b5f5ffd5b7f4e487b71000000000000000000000000000000000000000000000000000000005f52604160045260245ffd5b61290d82612546565b810181811067ffffffffffffffff8211171561292c5761292b6128d7565b5b80604052505050565b5f61293e61245a565b905061294a8282612904565b919050565b5f67ffffffffffffffff821115612969576129686128d7565b5b61297282612546565b9050602081019050919050565b828183375f83830152505050565b5f61299f61299a8461294f565b612935565b9050828152602081018484840111156129bb576129ba6128d3565b5b6129c684828561297f565b509392505050565b5f82601f8301126129e2576129e16128cf565b5b81356129f284826020860161298d565b91505092915050565b5f5f5f5f60808587031215612a1357612a12612463565b5b5f612a208782880161267a565b9450506020612a318782880161267a565b9350506040612a42878288016125cd565b925050606085013567ffffffffffffffff811115612a6357612a62612467565b5b612a6f878288016129ce565b91505092959194509250565b5f5f60408385031215612a9157612a90612463565b5b5f612a9e8582860161267a565b9250506020612aaf8582860161267a565b9150509250929050565b7f4e487b71000000000000000000000000000000000000000000000000000000005f52602260045260245ffd5b5f6002820490506001821680612afd57607f821691505b602082108103612b1057612b0f612ab9565b5b50919050565b5f606082019050612b295f83018661263c565b612b3660208301856126cc565b612b43604083018461263c565b949350505050565b5f604082019050612b5e5f83018561263c565b612b6b60208301846126cc565b9392505050565b7f4e487b71000000000000000000000000000000000000000000000000000000005f52603260045260245ffd5b5f81905092915050565b5f612bb38261251e565b612bbd8185612b9f565b9350612bcd818560208601612538565b80840191505092915050565b7f2e6a736f6e0000000000000000000000000000000000000000000000000000005f82015250565b5f612c0d600583612b9f565b9150612c1882612bd9565b600582019050919050565b5f612c2e8285612ba9565b9150612c3a8284612ba9565b9150612c4582612c01565b91508190509392505050565b7f4e487b71000000000000000000000000000000000000000000000000000000005f52601160045260245ffd5b5f612c8882612833565b9150612c9383612833565b9250828201905060ff811115612cac57612cab612c51565b5b92915050565b7f496e76616c696420696d6167652072616e6765000000000000000000000000005f82015250565b5f612ce6601383612528565b9150612cf182612cb2565b602082019050919050565b5f6020820190508181035f830152612d1381612cda565b9050919050565b5f612d24826125ae565b91507fffffffffffffffffffffffffffffffffffffffffffffffffffffffffffffffff8203612d5657612d55612c51565b5b600182019050919050565b5f612d6b82612833565b9150612d7683612833565b9250828203905060ff811115612d8f57612d8e612c51565b5b92915050565b5f819050919050565b612daf612daa826125ae565b612d95565b82525050565b5f8160601b9050919050565b5f612dcb82612db5565b9050919050565b5f612ddc82612dc1565b9050919050565b612df4612def8261262b565b612dd2565b82525050565b5f612e058286612d9e565b602082019150612e158285612de3565b601482019150612e258284612d9e565b602082019150819050949350505050565b7f4e487b71000000000000000000000000000000000000000000000000000000005f52601260045260245ffd5b5f612e6d826125ae565b9150612e78836125ae565b925082612e8857612e87612e36565b5b828206905092915050565b5f612e9d826125ae565b9150612ea8836125ae565b9250828201905080821115612ec057612ebf612c51565b5b92915050565b5f81519050919050565b5f82825260208201905092915050565b5f612eea82612ec6565b612ef48185612ed0565b9350612f04818560208601612538565b612f0d81612546565b840191505092915050565b5f608082019050612f2b5f83018761263c565b612f38602083018661263c565b612f4560408301856126cc565b8181036060830152612f578184612ee0565b905095945050505050565b5f81519050612f7081612496565b92915050565b5f60208284031215612f8b57612f8a612463565b5b5f612f9884828501612f62565b91505092915050565b5f604082019050612fb45f83018561263c565b612fc160208301846127a2565b9392505050565b5f612fd2826125ae565b9150612fdd836125ae565b9250828203905081811115612ff557612ff4612c51565b5b92915050565b7f4e487b71000000000000000000000000000000000000000000000000000000005f52603160045260245ffdfe697066733a2f2f516d5a5333346b74473632366133477175374343335169486552745657517a445374374c73444748755a6f4a7a772fa2646970667358221220181ce4cd9f5cf173aa42bc1808c647aee6c6672e3725e0504faae0739ede99fb64736f6c634300081c0033","linkReferences":{}},"methodIdentifiers":{"DEFAULT_ADMIN_ROLE()":"a217fddf","LEVEL_ONE_IMAGE_NUMBER()":"f7af81a7","MAX_IMAGES()":"76bbe0c2","MINTER_ROLE()":"d5391393","approve(address,uint256)":"095ea7b3","balanceOf(address)":"70a08231","burn(uint256)":"42966c68","getApproved(uint256)":"081812fc","getRoleAdmin(bytes32)":"248a9ca3","grantRole(bytes32,address)":"2f2ff15d","hasRole(bytes32,address)":"91d14854","imageNumberOf(uint256)":"b469b506","isApprovedForAll(address,address)":"e985e9c5","name()":"06fdde03","ownerOf(uint256)":"6352211e","renounceRole(bytes32,address)":"36568abe","revokeRole(bytes32,address)":"d547741f","safeMintLevel1(address)":"8d090547","safeMintLevel2(address)":"d8a75723","safeTransferFrom(address,address,uint256)":"42842e0e","safeTransferFrom(address,address,uint256,bytes)":"b88d4fde","setApprovalForAll(address,bool)":"a22cb465","supportsInterface(bytes4)":"01ffc9a7","symbol()":"95d89b41","tokenByIndex(uint256)":"4f6ccce7","tokenOfOwnerByIndex(address,uint256)":"2f745c59","tokenURI(uint256)":"c87b56dd","totalSupply()":"18160ddd","transferFrom(address,address,uint256)":"23b872dd"},"id":0}